:100000000C9435000C945D000C945D000C945D0024
:100010000C945D000C945D000C945D000C945D00EC
:100020000C945D000C945D000C945D000C945D00DC
:100030000C945D000C945D000C945D000C945D00CC
:100040000C94D0010C945D000C9440020C941A02A4
:100050000C945D000C945D000C945D000C945D00AC
:100060000C945D000C945D00640311241FBECFEF5F
:10007000D8E0DEBFCDBF11E0A0E0B1E0E8E0FCE0F9
:1000800002C005900D92AA31B107D9F722E0AAE18A
:10009000B1E001C01D92A43DB207E1F710E0C5E355
:1000A000D0E004C02197FE010E94B903C433D107F8
:1000B000C9F70E9480020C9402060C9400002FB72E
:1000C000F89480911F0190912001A0912101B0919D
:1000D00022012FBF80932B0190932C01A0932D011F
:1000E000B0932E01E0912301F09124010680F78165
:1000F000E02D83E291E0099597FF26C02FB7F89491
:1001000080911F0190912001A0912101B0912201C5
:100110002FBF40912B0150912C0160912D017091C6
:100120002E01841B950BA60BB70B40912701509114
:1001300028016091290170912A0184179507A6076B
:10014000B70780F28FEF9FEF0895CF92DF92EF9283
:10015000FF920F931F93CF93DF936C017A018B0172
:10016000C0E0D0E0CE15DF0589F0D8016D918D019A
:10017000D601ED91FC910190F081E02DC601099529
:10018000892B11F47E0102C02196ECCFC701DF91CB
:10019000CF911F910F91FF90EF90DF90CF90089536
:1001A000FC01918D828D981799F0828DDF01A80F47
:1001B000B11D5D968C91228D2F5F91E0283C08F453
:1001C00090E038E3939F200D1124228F90E0089552
:1001D0008FEF9FEF0895FC01918D828D981731F07C
:1001E000828DE80FF11D858D90E008958FEF9FEFD0
:1001F0000895FC01918D228D892F90E088539F4FA7
:10020000821B910968EC70E00E949103089583E2DB
:1002100091E00E94F90021E0892B09F420E0822F6F
:100220000895FC01848DDF01A80FB11DAB51BF4FB4
:100230002C91848D90E0019668EC70E00E94A503FB
:10024000848FA689B7892C93A089B1898C91806409
:100250008C93938D848D981306C00288F389E02DCA
:1002600080818F7D80830895FF920F931F93CF939A
:10027000DF93EC0181E0888F9B8D8C8D981305C0F6
:10028000E889F989808185FD26C0162F8B8D90E045
:10029000019668EC70E00E94A503082FF82E8C8D63
:1002A000F8120CC00FB607FCFACFE889F9898081F3
:1002B00085FFF5CFCE010E941101F1CF8B8DFE019C
:1002C000E80FF11DEB51FF4F10830B8FEA89FB897B
:1002D0008081806207C0EE89FF896083E889F9899F
:1002E00080818064808381E090E0DF91CF911F91D5
:1002F0000F91FF900895CF93DF93EC01888D8823B1
:10030000C9F0EA89FB89808185FD05C0A889B98982
:100310008C9186FD0FC00FB607FCF5CF808185FF5D
:10032000F2CFA889B9898C9185FFEDCFCE010E94CB
:100330001101E7CFDF91CF91089580E090E0892B04
:1003400029F00E94070181110C94000008950E9479
:10035000B6050F931F93CF93DF93EC0188819981AA
:10036000009729F02A813B812617370788F48B01F3
:100370006F5F7F4F0E94EC04009761F09983888340
:100380001B830A832C813D81232B11F4FC011082F5
:1003900081E001C080E0DF91CF911F910F9108951E
:1003A0001F920F920FB60F9211242F933F938F93AA
:1003B0009F93AF93BF9380911F0190912001A091D3
:1003C0002101B091220130911E0123E0230F2D372E
:1003D00020F40196A11DB11D05C026E8230F029649
:1003E000A11DB11D20931E0180931F019093200138
:1003F000A0932101B093220180911A0190911B01D9
:10040000A0911C01B0911D010196A11DB11D809309
:100410001A0190931B01A0931C01B0931D01BF9181
:10042000AF919F918F913F912F910F900FBE0F90A1
:100430001F9018951F920F920FB60F9211242F93B1
:100440003F934F935F936F937F938F939F93AF935C
:10045000BF93EF93FF9383E291E00E941101FF911C
:10046000EF91BF91AF919F918F917F916F915F912C
:100470004F913F912F910F900FBE0F901F901895A5
:100480001F920F920FB60F9211242F935F936F93C9
:100490007F938F939F93AF93BF93EF93FF93E091DD
:1004A0003301F09134018081E0913901F0913A01FA
:1004B00082FD16C0208180913C0190E0019668EC9D
:1004C00070E00E94910390913D01981751F0E091E6
:1004D0003C01F0E0ED5DFE4F258F80933C0101C0B3
:1004E0008081FF91EF91BF91AF919F918F917F910B
:1004F0006F915F912F910F900FBE0F901F901895E5
:10050000CF93DF93CDB7DEB728970FB6F894DEBF51
:100510000FBECDBF789484B5826084BD84B5816000
:1005200084BD85B5826085BD85B5816085BD8091BE
:100530006E00816080936E00109281008091810036
:10054000826080938100809181008160809381002E
:10055000809180008160809380008091B1008460F0
:100560008093B1008091B00081608093B000809151
:100570007A00846080937A0080917A008260809310
:100580007A0080917A00816080937A0080917A006D
:10059000806880937A001092C100E0913301F0915D
:1005A000340182E08083E0912F01F09130011082CC
:1005B000E0913101F09132018FEC808310923B0188
:1005C000E0913701F091380186E08083E0913501B8
:1005D000F0913601808180618083E0913501F09156
:1005E0003601808188608083E0913501F091360189
:1005F000808180688083E0913501F09136018081AF
:100600008F7D808383E291E00E94F900181619061D
:100610000CF057C01A8219821C821B821E821D8216
:1006200060E070E0CE0101960E94A90129813A8123
:1006300081110DC02115310519F0C9010E94540422
:100640001A8219821E821D821C821B8222C01E8277
:100650001D8268E171E0C9010E94C4051AC08F8340
:1006600018860D811E810F5F1F4FB801CE010196C4
:100670000E94A901882369F029813A818D819E8198
:10068000BE01695F7F4F820F931F0E94C4051E83C6
:100690000D830E945F0097FFE2CF4D815E816981EB
:1006A0007A8183E291E00E94A50042E050E066E199
:1006B00071E083E291E00E94A50089819A810E9405
:1006C00054040E949D019ECFE3E2F1E01382128266
:1006D00088EE93E0A0E0B0E084839583A683B7839F
:1006E0008AE091E09183808385EC90E09587848710
:1006F00084EC90E09787868780EC90E0918B808BEC
:1007000081EC90E0938B828B82EC90E0958B848BD4
:1007100086EC90E0978B868B118E128E138E148E42
:100720000895AA1BBB1B51E107C0AA1FBB1FA61738
:10073000B70710F0A61BB70B881F991F5A95A9F78A
:1007400080959095BC01CD01089597FB072E16F476
:10075000009407D077FD09D00E94910307FC05D0D3
:100760003EF4909581959F4F0895709561957F4FC8
:100770000895EE0FFF1F0590F491E02D0994CF939B
:10078000DF938230910510F482E090E0E091D20294
:10079000F091D30220E030E0C0E0D0E0309711F1DA
:1007A0004081518148175907C0F04817590761F433
:1007B00082819381209719F09B838A832BC0909329
:1007C000D3028093D20226C02115310519F04217B9
:1007D000530718F49A01BE01DF01EF010280F38193
:1007E000E02DDCCF2115310509F1281B390B243010
:1007F000310590F412968D919C91139761157105B6
:1008000021F0FB019383828304C09093D3028093F1
:10081000D202FD01329644C0FD01E20FF31F819325
:100820009193225031092D933C933AC02091D002EC
:100830003091D102232B41F4209102013091030128
:100840003093D1022093D002209100013091010118
:100850002115310541F42DB73EB740910401509167
:100860000501241B350BE091D002F091D102E21773
:10087000F307A0F42E1B3F0B2817390778F0AC01C3
:100880004E5F5F4F2417350748F04E0F5F1F5093A0
:10089000D1024093D0028193919302C0E0E0F0E056
:1008A000CF01DF91CF9108950F931F93CF93DF93E3
:1008B000009709F48CC0FC013297138212820091D8
:1008C000D2021091D3020115110581F420813181EA
:1008D000820F931F2091D0023091D102281739073F
:1008E00079F5F093D102E093D00271C0D80140E0D5
:1008F00050E0AE17BF0750F412962D913C9113971C
:10090000AD012115310509F1D901F3CF9D01DA01BE
:100910003383228360817181860F971F821793072B
:1009200069F4EC0128813981260F371F2E5F3F4F74
:10093000318320838A819B8193838283452B29F491
:10094000F093D302E093D20242C01396FC93EE934D
:100950001297ED01499159919E01240F351FE2171D
:10096000F30771F480819181840F951F029611968F
:100970009C938E938281938113969C938E9312976E
:10098000E0E0F0E0D80112968D919C9113970097CA
:1009900019F0F8018C01F6CF8D919C9198012E5F92
:1009A0003F4F820F931F2091D0023091D102281720
:1009B000390769F4309729F41092D3021092D202C9
:1009C00002C0138212821093D1020093D002DF91F1
:1009D000CF911F910F910895A0E0B0E0E2EFF4E015
:1009E0000C94CF05EC01009721F4CB010E94BF03CA
:1009F000B8C0FC01E60FF71F9C0122503109E21735
:100A0000F30708F4ACC0D9010D911C91119706179A
:100A10001707B0F00530110508F49FC0C80104970E
:100A20008617970708F499C002501109061B170B87
:100A3000019311936D937C93CF010E9454048DC058
:100A40005B01A01AB10A4C01800E911EA091D20246
:100A5000B091D30240E050E0E12CF12C109709F462
:100A60004AC0A815B905D1F56D907C901197630126
:100A700082E0C80ED11CCA14DB0480F1A3014A191C
:100A80005B096A0182E0C80ED11C1296BC901297D5
:100A90001396AC91B5E0CB16D10440F0B282A3839B
:100AA00051834083D9016D937C930AC00E5F1F4F21
:100AB000C301800F911FF90191838083EB2DFA2FE1
:100AC000E114F10431F0D7011396FC93EE931297E1
:100AD00044C0F093D302E093D2023FC08D919C9129
:100AE00011974817590708F4AC017D0112960D9033
:100AF000BC91A02DB3CF8091D0029091D1028815E6
:100B00009905E1F446175707C8F4809100019091C8
:100B10000101009741F48DB79EB7409104015091B7
:100B20000501841B950BE817F907C8F4F093D1026F
:100B3000E093D002F901718360830FC0CB010E9462
:100B4000BF037C01009759F0A801BE010E94BB05BC
:100B5000CE010E945404C70104C0CE0102C080E04F
:100B600090E0CDB7DEB7EEE00C94EB0581E090E0CD
:100B7000F8940C940206FB01DC0102C001900D9276
:100B800041505040D8F70895FB01DC0101900D92CF
:100B90000020E1F708952F923F924F925F926F925B
:100BA0007F928F929F92AF92BF92CF92DF92EF92FD
:100BB000FF920F931F93CF93DF93CDB7DEB7CA1B7E
:100BC000DB0B0FB6F894DEBF0FBECDBF09942A88A9
:100BD000398848885F846E847D848C849B84AA8451
:100BE000B984C884DF80EE80FD800C811B81AA81DE
:100BF000B981CE0FD11D0FB6F894DEBF0FBECDBFA9
:080C0000ED010895F894FFCF07
:100C08000000D4028000000000003401A500F900B3
:0A0C1800D000EB007B010D0A000084
:00000001FF
