:100000000C948C000C94B4000C94B4000C94110566
:100010000C9411050C9411050C94B4000C94B400CC
:100020000C94B4000C94B4000C94B4000C94B40080
:100030000C94B4000C94B4000C94B4000C94B40070
:100040000C94C7040C94B4000C9487040C946104C1
:100050000C94B4000C94B4000C94B4000C94B40050
:100060000C94B4000C94B4009F09C209E009FB0988
:10007000060A440A4B0A550A600A6F0A6F0A6F0A99
:100080006F0A6F0A6F0A6F0A6F0A6F0A6F0A6F0AA8
:100090006F0A6F0A6F0A6F0A6F0A6F0A6F0A6F0A98
:1000A0006F0A6F0A6F0A6F0A9F09BD09C209E0094A
:1000B000FB09060A210A2C0A370A00000008000280
:1000C0000100000304070000000000000000000021
:1000D0000000250028002B0000000000240027005D
:1000E0002A00000000002300260029000404040464
:1000F00004040404020202020202030303030303D2
:1001000001020408102040800102040810200102AE
:10011000040810208D05EC0A11241FBECFEFD8E093
:10012000DEBFCDBF11E0A0E0B1E0E0E6F7E102C044
:1001300005900D92AC34B107D9F724E0ACE4B1E0FE
:1001400001C01D92A836B207E1F710E0CBE8D0E07D
:1001500004C02197FE010E94500BCA38D107C9F78D
:100160000E94EB060C94A30B0C9400000F931F93BA
:10017000CF93DF93EC0160E070E0CB01E99120EDDB
:100180002E0F2A30C0F4AAE0B0E09B01AC010E941F
:10019000560B0E2FEE0F110B220B330BDC01CB0194
:1001A000800F911FA21FB31FBC01CD0160537109C5
:1001B00081099109E3CFDF91CF911F910F910895AC
:1001C0000F931F93CF93C1E080912C048D3221F0C7
:1001D000C0E00CE214E002C00DE214E0C8010E948D
:1001E000B6009B01AC01A4E6B0E00E94560BF801FA
:1001F000DF01219130ED320F3A30D0F32E3269F524
:1002000011962C91119730ED320F3A3030F5022EC5
:10021000000C330B205331094AE0429F8001439F79
:10022000100D1124012E000C220B330B600F711FD7
:10023000821F931F12960C9120ED200F2A3068F434
:10024000002E000C110B00531109012E000C220B83
:10025000330B600F711F821F931FCC2339F09095D1
:100260008095709561957F4F8F4F9F4FCF911F91D4
:100270000F9108954F925F926F927F928F929F920B
:10028000AF92BF92CF92DF92EF92FF92CF93DF9324
:100290008CE294E00E94B6002B013C0124E630E0A1
:1002A00040E050E00E942E0B9B01AC01A0E1B7E2C0
:1002B0000E94560B6B017C01ECE2F4E0819190ED21
:1002C000980F9A30D8F38E3219F5EF0188EE882E08
:1002D00083E0982EA12CB12CA99180ED8A0F8A3051
:1002E000B8F40A2E000CBB0BD097A50194010E9414
:1002F000610BC60ED71EE81EF91EC501B4012AE027
:1003000030E040E050E00E942E0B49015A01E4CF5A
:10031000C701B60126E030E040E050E00E942E0B1D
:1003200069017A01C301B20124E630E040E050E007
:100330000E942E0B60EA76E881E090E00E94F60AC7
:100340006C0D7D1D8E1D9F1DDF91CF91FF90EF9055
:10035000DF90CF90BF90AF909F908F907F906F90E5
:100360005F904F900895CF92DF92EF92FF920F939C
:100370001F93CF93DF936C017A018B01C0E0D0E033
:10038000CE15DF0589F0D8016D918D01D601ED9173
:10039000FC910190F081E02DC6010995892B11F4A3
:1003A0007E0102C02196ECCFC701DF91CF911F9152
:1003B0000F91FF90EF90DF90CF900895FC01918D09
:1003C000828D981799F0828DDF01A80FB11D5D967F
:1003D0008C91228D2F5F91E0283C08F490E038E367
:1003E000939F200D1124228F90E008958FEF9FEFAF
:1003F0000895FC01918D828D981731F0828DE80F60
:10040000F11D858D90E008958FEF9FEF0895FC0119
:10041000918D228D892F90E088539F4F821B9109E7
:1004200068EC70E00E94060B089589E292E00E9459
:10043000070221E0892B09F420E0822F0895FC01B6
:10044000848DDF01A80FB11DAB51BF4F2C91848D5E
:1004500090E0019668EC70E00E941A0B848FA689E8
:10046000B7892C93A089B1898C9180648C93938DEA
:10047000848D981306C00288F389E02D80818F7DDA
:1004800080830895FF920F931F93CF93DF93EC0126
:1004900081E0888F9B8D8C8D981305C0E889F98940
:1004A000808185FD26C0162F8B8D90E0019668EC2B
:1004B00070E00E941A0B082FF82E8C8DF8120CC0D9
:1004C0000FB607FCFACFE889F989808185FFF5CF5F
:1004D000CE010E941F02F1CF8B8DFE01E80FF11DAE
:1004E000EB51FF4F10830B8FEA89FB89808180627B
:1004F00007C0EE89FF896083E889F989808180647B
:10050000808381E090E0DF91CF911F910F91FF9068
:100510000895CF93DF93EC01888D8823C9F0EA8991
:10052000FB89808185FD05C0A889B9898C9186FDEC
:100530000FC00FB607FCF5CF808185FFF2CFA889E9
:10054000B9898C9185FFEDCFCE010E941F02E7CFC4
:10055000DF91CF91089580E090E0892B29F00E94EF
:10056000150281110C940000089590E0FC01E654FE
:10057000FF4F3491FC01E050FF4F2491FC01E45106
:10058000FF4FE491EE2309F43BC0332339F13330BC
:1005900091F038F43130A9F0323001F584B58F7D17
:1005A00012C0373091F03830A1F03430B9F4809176
:1005B00080008F7D03C0809180008F7780938000C2
:1005C0000DC084B58F7784BD09C08091B0008F774E
:1005D00003C08091B0008F7D8093B000F0E0EE0FFB
:1005E000FF1FE253FF4FA591B4918FB7F894EC91A0
:1005F000611103C020952E2301C02E2B2C938FBF99
:10060000089520911B0230911C022817390771F4BC
:100610009091190280911A02981741F0E091190205
:10062000F0E0E45BFE4F808190E008958FEF9FEF54
:10063000089508951F93CF93DF93DC015C962D916D
:100640003C915D972115310539F481E090E01396D6
:100650009C938E9312973DC05196ED91FC915297C9
:1006600050969C915097892F80951FB75E964C911C
:100670005E9741FB772770F941FD6095F8944081C2
:10068000772311F0492B01C048234083E9012197CA
:10069000F1F748E0508160FF02C0592B01C0582398
:1006A0005083E9012197F1F76695415099F7772337
:1006B00021F090818923808303C08081982B9083CF
:1006C0001FBF5C968D919C915D970197F1F721E09A
:1006D00030E0C901DF91CF911F91089520911B0255
:1006E00030911C022817390771F480911A02209169
:1006F000190290E088539F4F821B910968EC70E0CB
:100700000E941A0B089580E090E0089520911B024A
:1007100030911C0228173907C9F490911902809171
:100720001A02981799F0E0911902F0E0E45BFE4F8D
:1007300020818091190290E0019668EC70E00E949F
:100740001A0B80931902822F90E008958FEF9FEF8C
:100750000895E0911B02F0911C02E817F90769F473
:10076000A389B4899C918589809589238C93109263
:100770001C0210921B0281E0089580E0089500970A
:1007800069F0FC0101900020E9F73197AF01481BA7
:10079000590BBC0189E292E00C94B30180E090E037
:1007A00008958F929F92AF92BF92CF92DF92EF9275
:1007B000FF920F931F93CF93DF93CDB7DEB7A1972F
:1007C0000FB6F894DEBF0FBECDBF6B017C0197FF63
:1007D00031C0E0912902F0912A020190F081E02DD0
:1007E0006DE289E292E009958C0122273327A90165
:1007F0002C193D094E095F0919A2CE0181967C0191
:100800009AE0892E912CA12CB12CCA01B901A50125
:1008100094010E942E0B605DF70162937F01211508
:1008200031054105510589F7CF010E94BF03080F2B
:10083000191F1EC09B01AC0119A28E010F5D1F4F35
:100840008AE0C82ED12CE12CF12CCA01B901A701F4
:1008500096010E942E0B605DF80162938F012115B5
:1008600031054105510589F7CF010E94BF038C0175
:1008700080E291E00E94BF03800F911FA1960FB606
:10088000F894DEBF0FBECDBFDF91CF911F910F91C6
:10089000FF90EF90DF90CF90BF90AF909F908F90A0
:1008A0000895CF93DF930E94BF03EC0180E291E0B3
:1008B0000E94BF038C0F9D1FDF91CF9108950E946E
:1008C000780B1F920F920FB60F9211242F933F9324
:1008D0004F935F936F937F938F939F93AF93BF9348
:1008E000EF93FF9389E292E00E941F02FF91EF9144
:1008F000BF91AF919F918F917F916F915F914F9138
:100900003F912F910F900FBE0F901F9018951F923F
:100910000F920FB60F9211242F935F936F937F93D3
:100920008F939F93AF93BF93EF93FF93E09139021F
:10093000F0913A028081E0913F02F091400282FD05
:1009400016C020818091420290E0019668EC70E030
:100950000E94060B90914302981751F0E0914202D9
:10096000F0E0E75DFD4F258F8093420201C080815A
:10097000FF91EF91BF91AF919F918F917F916F9177
:100980005F912F910F900FBE0F901F9018951F929F
:100990000F920FB60F9211242F933F938F939F9333
:1009A000AF93BF9380911D0290911E02A0911F02F0
:1009B000B09120023091180223E0230F2D3720F44C
:1009C0000196A11DB11D05C026E8230F0296A11DA9
:1009D000B11D2093180280931D0290931E02A093D4
:1009E0001F02B09320028091140290911502A091F1
:1009F0001602B09117020196A11DB11D8093140239
:100A000090931502A0931602B0931702BF91AF9175
:100A10009F918F913F912F910F900FBE0F901F903C
:100A200018951F920F920FB60F9211242F933F9398
:100A30004F935F936F937F938F939F93AF93BF93E6
:100A4000EF93FF93E0911B02F0911C02309709F4A1
:100A500053C0968DA685B785858591FF04C09C916E
:100A6000892329F449C09C91892309F045C0A389B1
:100A7000B4899C918589809589238C9386899789EF
:100A80000197F1F7608D718DA685B785558538E0A2
:100A900020E0CB010197F1F7822F90E095958795A3
:100AA000282F4C91452309F02068315091F7868D0D
:100AB00081FD209580911A0290E0019668EC70E02B
:100AC0000E941A0B90911902981749F0A0911A02EE
:100AD000B0E0A45BBE4F2C9380931A0203C0868DB6
:100AE0008160868F828D938D0197F1F7A389B489F8
:100AF0009C918589892B8C93FF91EF91BF91AF9148
:100B00009F918F917F916F915F914F913F912F9125
:100B10000F900FBE0F901F901895CF93DF931092F8
:100B20002C0210922B0288EE93E0A0E0B0E08093BC
:100B30002D0290932E02A0932F02B093300224E056
:100B400031E030932A022093290225EC30E03093E3
:100B500036022093350224EC30E0309338022093A3
:100B6000370220EC30E030933A022093390221EC36
:100B700030E030933C0220933B0222EC30E0309393
:100B80003E0220933D0226EC30E030934002209359
:100B90003F021092420210924302109244021092BD
:100BA000450210924C0410924B0480934D04909394
:100BB0004E04A0934F04B093500484E191E09093CD
:100BC0004A04809349041092600410925F041092CA
:100BD00062041092610410926404109263041092F3
:100BE000660410926504609167046E7F6D7F609368
:100BF00067046695617081E0682784E00E94B50211
:100C0000E4E0F1E02491E0EFF0E08491882399F0B2
:100C100090E0880F991FFC01E852FF4FA591B49115
:100C2000FC01E253FF4F859194918FB7F894EC91BA
:100C3000E22BEC938FBFE4E0F1E0E491E093590400
:100C4000E0EFF0E0E491F0E0EE0FFF1FE253FF4F22
:100C50008591949190935B0480935A04E3E0F1E0D2
:100C60002491EFEEF0E084918823C1F090E0880FAA
:100C7000991FFC01E852FF4FC591D491FC01E2534A
:100C8000FF4FA591B4919FB7F8948881E22FE0952A
:100C90008E2388838C91E823EC939FBF8091670417
:100CA00081FD04C061E083E00E94B50283E080938F
:100CB0005504E3E0F1E0E491E0935604EFEEF0E058
:100CC000E491F0E0EE0FFF1FEE51FF4F85919491FC
:100CD00090935804809357044FEF5FEFBA0140930D
:100CE000D6035093D7036093D8037093D90310921F
:100CF000DE031092DF031092E0031092E1038FEF06
:100D000099ECAAE9BBE38093E6039093E703A093F1
:100D1000E803B093E9038093EE039093EF03A0936D
:100D2000F003B093F1038093F6039093F703A0933D
:100D3000F803B093F9038093FE039093FF03A0930D
:100D40000004B09301048093060490930704A093D9
:100D50000804B093090440930E0450930F04609369
:100D60001004709311048FEF90E090931704809318
:100D7000160440931A0450931B0460931C04709350
:100D80001D04409322045093230460932404709321
:100D9000250410922A0410922B0482E080933B04D5
:100DA00010923C0410923D0410923E0410923F04B5
:100DB0001092400410924104109242041092440494
:100DC00010924304109246041092450410922C0491
:100DD000DF91CF910895789484B5826084BD84B505
:100DE000816084BD85B5826085BD85B5816085BD26
:100DF00080916E00816080936E00109281008091DE
:100E00008100826080938100809181008160809365
:100E10008100809180008160809380008091B1008A
:100E200084608093B1008091B00081608093B000B5
:100E300080917A00846080937A0080917A00826049
:100E400080937A0080917A00816080937A0080910B
:100E50007A00806880937A001092C100E091390294
:100E6000F0913A0282E08083E0913502F0913602FF
:100E70001082E0913702F09138028FEC808310925B
:100E80004102E0913D02F0913E0286E08083E091D4
:100E90003B02F0913C02808180618083E0913B02C3
:100EA000F0913C02808188608083E0913B02F09168
:100EB0003C02808180688083E0913B02F0913C029B
:100EC00080818F7D8083109264041092630410925D
:100ED0006204109261041092600410925F048EE329
:100EE00093E0909366048093650490915504963145
:100EF00008F057C02DE831E03093600420935F0480
:100F00002CE333E0309362042093610424E632E062
:100F1000309364042093630420916800983050F06B
:100F200031E09E3008F430E081E001C0880F3A954E
:100F3000EAF701C084E0822B80936800983038F093
:100F40009E3040F0963148F020E030E008C02DE6B9
:100F500030E005C02BE630E002C02CE630E03093F4
:100F60005D0420935C04983030F481E001C0880F68
:100F70009A95EAF70EC0292F30E09E3018F42850D9
:100F8000310902C02E50310981E001C0880F2A9535
:100F9000EAF780935E04809165049091660401975E
:100FA000F1F78091630490916404892B21F1809181
:100FB0001B0290911C0224E089349207E1F0009713
:100FC00011F00E94A903809167048E7F80936704CB
:100FD00010921A021092190289E494E090931C0274
:100FE00080931B02E0915C04F0915D0490818091FC
:100FF0005E04892B8083D2E011E089E494E00E94B2
:101000006E03892B09F4E2C289E494E00E9486030E
:10101000C82F80913F0490914004A0914104B09169
:1010200042040196A11DB11D80933F04909340049A
:10103000A0934104B0934204C43209F4A6C2E091E3
:101040003D04C53234F4CA3071F0CD3009F0AAC283
:101050000AC0CA3241F0CC3209F0A4C280912A04FD
:101060008C2780932A04EF3008F039C2F0E0E45D69
:10107000FB4F108280912B04882309F428C1209112
:101080002C043FEB320F822F022E000C990B3630CE
:1010900010F4C79707C02156263018F487559109D8
:1010A00001C0C097282F2295207F30912D044FEB4F
:1010B000430F832F032E000C990B463010F4C79773
:1010C00007C03156363018F48755910901C0C097D2
:1010D000820F90912A048913F0C080913E048823E6
:1010E00009F4FDC1809143049091440401969093CA
:1010F00044048093430480911E0490911F04A091A6
:101100002004B091210480931A0490931B04A093AF
:101110001C04B0931D048091260490912704A09193
:101120002804B09129048093220490932304A0936F
:101130002404B093250480913B04882309F464C0FF
:10114000813009F0C8C18091DA039091DB03A0914E
:10115000DC03B091DD038093D6039093D703A09373
:10116000D803B093D9038091E2039091E303A09157
:10117000E403B091E5038093DE039093DF03A09333
:10118000E003B093E1038091EA039091EB03A09117
:10119000EC03B091ED038093E6039093E703A093F3
:1011A000E803B093E9038091F2039091F303A091D7
:1011B000F403B091F5038093EE039093EF03A093B3
:1011C000F003B093F1038091020490910304A09185
:1011D0000404B09105048093FE039093FF03A09351
:1011E0000004B093010480910A0490910B04A09133
:1011F0000C04B0910D048093060490930704A0930F
:101200000804B093090467C18091FA039091FB032D
:10121000A091FC03B091FD038093F6039093F70334
:10122000A093F803B093F9038091DA039091DB0364
:10123000A091DC03B091DD038093D6039093D70394
:10124000A093D803B093D9038091EA039091EB0364
:10125000A091EC03B091ED038093E6039093E70334
:10126000A093E803B093E9038091F2039091F30314
:10127000A091F403B091F5038093EE039093EF03F4
:10128000A093F003B093F103809118049091190496
:101290009093170480931604809112049091130484
:1012A000A0911404B091150480930E0490930F0440
:1012B000A0931004B09311040EC180914504909145
:1012C00046040196909346048093450408C190918A
:1012D0003C0491111CC0ACE2B4E043E251E09D013A
:1012E000F90181919F01882309F4F7C0FA019191D6
:1012F000AF018917A9F3E5E4F1E08D91882309F4A2
:1013000068C191918917C9F3D0933B04E8C0E0917B
:101310003B04E23009F4E3C080912C04882309F4F3
:10132000DEC020E2E29FF0011124E92B3197E9327F
:10133000F10508F0D4C0EC5CFF4F0C94500B0E94F8
:10134000E0006093DA037093DB038093DC039093F7
:10135000DD032FB7F89480911D0290911E02A09199
:101360001F02B09120022FBF80931E0490931F0490
:10137000A0932004B0932104B2C091E0813409F01D
:1013800086C086C00E943A016093EA037093EB0323
:101390008093EC039093ED032FB7F89480911D0296
:1013A00090911E02A0911F02B09120022FBF809346
:1013B000260490932704A0932804B09329048FC097
:1013C000833509F08CC08091EA039091EB03A091E2
:1013D000EC03B091ED03B095A095909581959F4F4A
:1013E000AF4FBF4F8093EA039093EB03A093EC03BE
:1013F000B093ED0374C00E943A016093F2037093BE
:10140000F3038093F4039093F50369C0873509F0E3
:1014100066C08091F2039091F303A091F403B09120
:10142000F503B095A095909581959F4FAF4FBF4F15
:101430008093F2039093F303A093F403B093F50326
:101440004EC00E94E00060930204709303048093F6
:1014500004049093050443C00E94E00060930A04D2
:1014600070930B0480930C0490930D0438C08CE2AD
:1014700094E00E94B6006093E2037093E3038093CC
:10148000E4039093E5032BC091E081330CF490E0EA
:1014900090933E0424C08CE294E00E947D0B992737
:1014A00090931904809318041AC00E94E00060937E
:1014B00012047093130480931404909315040FC0C6
:1014C0000E94E0006093FA037093FB038093FC0397
:1014D0009093FD0304C091E003C010933B0490E09F
:1014E00080913C048F5F80933C0410923D0481E026
:1014F000CA3209F080E080932B04992309F47DCD52
:101500008091E6039091E703A091E803B091E9038D
:101510008093250290932602A0932702B09328027D
:101520008091EE039091EF03A091F003B091F1034D
:101530008093210290932202A0932302B09324026D
:1015400089E291E00E94510486E391E00E945104F7
:1015500060912502709126028091270290912802C5
:101560000E94D10383E391E00E9451048EE391E055
:101570000E94510460912102709122028091230205
:10158000909124020E94D10338CD10923D04109214
:101590003C0410922A04D0933B0410922B04109226
:1015A0003E042BCDEE3040F481E08E0F80933D045D
:1015B000F0E0E45DFB4FC08380912B0481111DCDD1
:1015C00080912A04C827C0932A0417CD0E94AB0239
:1015D00014CD10923B0483CF84E191E090934A04B0
:1015E0008093490489E494E00C94A903DB018F9370
:1015F0009F930E94560BBF91AF91A29F800D911DAA
:10160000A39F900DB29F900D11240895AA1BBB1BA0
:1016100051E107C0AA1FBB1FA617B70710F0A61BF2
:10162000B70B881F991F5A95A9F780959095BC0113
:10163000CD01089597FB072E16F4009407D077FD8F
:1016400009D00E94060B07FC05D03EF490958195C9
:101650009F4F0895709561957F4F0895A1E21A2ECE
:10166000AA1BBB1BFD010DC0AA1FBB1FEE1FFF1F46
:10167000A217B307E407F50720F0A21BB30BE40B96
:10168000F50B661F771F881F991F1A9469F76095DD
:101690007095809590959B01AC01BD01CF01089597
:1016A000EE0FFF1F0590F491E02D09940E94690B45
:1016B000A59F900DB49F900DA49F800D911D1124A6
:1016C0000895B7FF0C94560B0E94560B821B930B88
:1016D0000895A29FB001B39FC001A39F700D811D0B
:1016E0001124911DB29F700D811D1124911D08952B
:1016F00081E090E0F8940C94A30BFC0188279927D3
:10170000E89421912032E9F3293010F02E30C8F30B
:101710002B3241F02D3239F4689404C00E949B0BA7
:10172000820F911D219120532A30C0F31EF4909511
:1017300081959F4F08957AE0979F902D879F802DE8
:10174000910D1124089510E0CBE8D0E004C0FE0113
:101750000E94500B2196CC38D107C9F7F894FFCFDF
:10176000000000004202B3010702DE01F901890214
:10177000000000001A03B3016E038603010319037E
:101780000D0A004750524D4300706F736974696FC2
:101790006E3A202020006C61743A202020006C6F8B
:0C17A0006E3A20200047504747410000EF
:00000001FF
