:100000000C942A000C9434000C9434000C943400AA
:100010000C9434000C9434000C9434000C94340090
:100020000C9434000C9434000C9434000C94340080
:100030000C9434000C9434000C9434000C94340070
:100040000C9434000C9434000C9434000C94340060
:100050000C94340011241FBECFE5D4E0DEBFCDBF29
:100060000E9436000C94D0010C9400000F931F9353
:10007000DF93CF93CDB7DEB7E6970FB6F894DEBF28
:100080000FBECDBF84E390E02FEFFC01208381E31E
:1000900090E02FEFFC01208388E30E94540186E06A
:1000A0000E9454018CE00E94540180E80E94540197
:1000B00081E00E9454018BE290E0FC0110828AE210
:1000C00090E028E1FC01208380E490E026E0FC0140
:1000D000208389E290E029E1FC01208380E490E024
:1000E000FC01108203C0000001C000000E94CF008C
:1000F0008A830E94CF008B838A818136A1F78B810E
:10010000813699F703C0000001C000008A81813662
:10011000D1F78B818136C9F78981082F10E00E94C1
:10012000CF00282FCE010596800F911FFC01208360
:100130008981882F90E09E012B5F3F4F820F931F94
:10014000FC018081813639F50E94CF008C838C813F
:10015000813699F48981882F90E09E012B5F3F4F73
:10016000820F931FFC01108280E80E945401CE018F
:1001700005960E94AE010000B9CF89818F5F898307
:100180008981882F90E09E012B5F3F4F820F931F44
:100190002C81FC01208389818F5F8983BDCFDF9310
:1001A000CF93CDB7DEB78BE290E02BE230E0F901E0
:1001B00020812F77FC01208300008BE290E0FC017E
:1001C00080818823D4F78CE290E0FC018081CF917C
:1001D000DF910895DF93CF930F92CDB7DEB7898378
:1001E0008CE290E02981FC01208300008BE290E00A
:1001F000FC018081882F90E0807290700097B1F3AD
:100200000F90CF91DF910895DF93CF9300D0CDB7BA
:10021000DEB79A8389830FC089819A81FC0120818E
:1002200089819A8101969A838983822F0E94EA00AC
:1002300082E00E94260189819A81FC0180818823C5
:1002400059F70F900F90CF91DF910895DF93CF93DF
:1002500000D000D00F92CDB7DEB78D831A821982FD
:1002600013C01C821B8205C08B819C8101969C83DC
:100270008B838B819C8123E0893E9207ACF389813B
:100280009A8101969A8389838D81282F30E0898114
:100290009A81281739072CF70F900F900F900F9025
:1002A0000F90CF91DF910895DF93CF930F92CDB749
:1002B000DEB7898385E390E02981FC01208382E316
:1002C00090E022E330E0F90120812F7BFC012083C4
:1002D00082E390E022E330E0F90120812068FC0114
:1002E000208382E00E94260182E390E022E330E056
:1002F000F90120812F77FC0120830F90CF91DF91AE
:100300000895DF93CF930F92CDB7DEB7898385E34E
:1003100090E02981FC01208382E390E022E330E039
:10032000F90120812064FC01208382E390E022E334
:1003300030E0F90120812068FC01208382E00E94E6
:10034000260182E390E022E330E0F90120812F775B
:10035000FC0120830F90CF91DF910895DF93CF931D
:1003600000D0CDB7DEB79A8389830FC089819A8187
:10037000FC01208189819A8101969A838983822F49
:100380000E94810182E00E94260189819A81FC01FC
:100390008081882359F70F900F90CF91DF910895B6
:0403A000F894FFCFFF
:00000001FF
