:100000000C942A000C943F000C943F000C943F0089
:100010000C943F000C943F000C943F000C943F0064
:100020000C943F000C943F000C943F000C943F0054
:100030000C943F000C943F000C943F000C943F0044
:100040000C943F000C943F000C943F000C943F0034
:100050000C943F0011241FBECFE5D4E0DEBFCDBF1E
:1000600010E0A0E6B0E0E4E4F2E002C005900D92FA
:10007000AA36B107D9F70E9441000C9420010C94D4
:100080000000DF93CF9300D0CDB7DEB784E390E0DC
:100090002FEFFC01208381E390E02FEFFC01208310
:1000A00081E090E09A83898388E30E94720080E86F
:1000B0000E9472008CE00E94720086E00E94720032
:1000C00081E00E94720080E80E9472008981805D58
:1000D0000E94A00080EC0E94720080E690E00E94E6
:1000E000CE00F1CFDF93CF930F92CDB7DEB78983E8
:1000F00085E390E02981FC01208382E390E022E304
:1001000030E0F90120812F7BFC01208382E390E025
:1001100022E330E0F90120812068FC01208382E0A5
:1001200090E00E94F10082E390E022E330E0F901E8
:1001300020812F77FC0120830F90CF91DF910895CC
:10014000DF93CF930F92CDB7DEB7898385E390E03D
:100150002981FC01208382E390E022E330E0F90171
:1001600020812064FC01208382E390E022E330E0E0
:10017000F90120812068FC01208382E090E00E9448
:10018000F10082E390E022E330E0F90120812F7753
:10019000FC0120830F90CF91DF910895DF93CF93DF
:1001A00000D0CDB7DEB79A83898310C089819A8148
:1001B000FC01208189819A8101969A838983822F0B
:1001C0000E94A00082E090E00E94F10089819A8163
:1001D000FC018081882351F70F900F90CF91DF9120
:1001E0000895DF93CF9300D000D000D0CDB7DEB715
:1001F0009E838D831A82198213C01C821B8205C0C4
:100200008B819C8101969C838B838B819C8123E0D5
:10021000893E9207ACF389819A8101969A838983FA
:1002200029813A818D819E818217930734F7269622
:100230000FB6F894DEBF0FBECDBFCF91DF9108950A
:04024000F894FFCF60
:0A024400737265656E617468000056
:00000001FF
