:100000000C9435000C945D000C945D000C945D0024
:100010000C945D000C945D000C945D000C945D00EC
:100020000C945D000C945D000C945D000C945D00DC
:100030000C945D000C945D000C945D000C945D00CC
:100040000C943F020C945D000C94FF010C94D901B8
:100050000C945D000C945D000C945D000C945D00AC
:100060000C945D000C945D004F0311241FBECFEF74
:10007000D8E0DEBFCDBF11E0A0E0B1E0E6EAF7E0F6
:1000800002C005900D92A431B107D9F722E0A4E196
:10009000B1E001C01D92AA3CB207E1F710E0C5E350
:1000A000D0E004C02197FE010E94C603C433D107EB
:1000B000C9F70E9489020C94D1030C940000CF92DE
:1000C000DF92EF92FF920F931F93CF93DF936C0118
:1000D0007A018B01C0E0D0E0CE15DF0589F0D801B0
:1000E0006D918D01D601ED91FC910190F081E02D93
:1000F000C6010995892B11F47E0102C02196ECCF2F
:10010000C701DF91CF911F910F91FF90EF90DF908A
:10011000CF900895FC01918D828D981799F0828D72
:10012000DF01A80FB11D5D968C91228D2F5F91E0AC
:10013000283C08F490E038E3939F200D1124228F8F
:1001400090E008958FEF9FEF0895FC01918D828DCF
:10015000981731F0828DE80FF11D858D90E008959C
:100160008FEF9FEF0895FC01918D228D892F90E0F4
:1001700088539F4F821B910968EC70E00E947C03BA
:1001800008958DE191E00E94B30021E0892B09F4EC
:1001900020E0822F0895FC01848DDF01A80FB11D9E
:1001A000AB51BF4F2C91848D90E0019668EC70E0CC
:1001B0000E949003848FA689B7892C93A089B18966
:1001C0008C9180648C93938D848D981306C00288E3
:1001D000F389E02D80818F7D80830895FF920F93B6
:1001E0001F93CF93DF93EC0181E0888F9B8D8C8DE3
:1001F000981305C0E889F989808185FD26C0162FEE
:100200008B8D90E0019668EC70E00E949003082FBF
:10021000F82E8C8DF8120CC00FB607FCFACFE889C7
:10022000F989808185FFF5CFCE010E94CB00F1CF07
:100230008B8DFE01E80FF11DEB51FF4F10830B8FEB
:10024000EA89FB898081806207C0EE89FF8960832B
:10025000E889F98980818064808381E090E0DF9182
:10026000CF911F910F91FF900895CF93DF93EC01F1
:10027000888D8823C9F0EA89FB89808185FD05C0C6
:10028000A889B9898C9186FD0FC00FB607FCF5CF00
:10029000808185FFF2CFA889B9898C9185FFEDCF48
:1002A000CE010E94CB00E7CFDF91CF91089580E08F
:1002B00090E0892B29F00E94C10081110C9400006C
:1002C00008953FB7F8948091190190911A01A09177
:1002D0001B01B0911C0126B5A89B05C02F3F19F04A
:1002E0000196A11DB11D3FBFBA2FA92F982F8827B6
:1002F000820F911DA11DB11DBC01CD0142E0660F11
:10030000771F881F991F4A95D1F708958F929F9262
:10031000AF92BF920F931F93CF93DF93CDB7DEB70A
:10032000A1970FB6F894DEBF0FBECDBF19A2423021
:1003300008F44AE08E010F5D1F4F842E912CA12CF2
:10034000B12CA50194010E94A403E62FB901CA01B2
:1003500001501109EA3014F4E05D01C0E95CD801F4
:10036000EC93232B242B252B61F70115110571F03C
:10037000F80101900020E9F73197AF01401B510BC4
:10038000B8018DE191E00E945F0002C080E090E042
:10039000A1960FB6F894DEBF0FBECDBFDF91CF910F
:1003A0001F910F91BF90AF909F908F9008950E94E2
:1003B000CC031F920F920FB60F9211242F933F93ED
:1003C0004F935F936F937F938F939F93AF93BF935D
:1003D000EF93FF938DE191E00E94CB00FF91EF91AD
:1003E000BF91AF919F918F917F916F915F914F914D
:1003F0003F912F910F900FBE0F901F9018951F9255
:100400000F920FB60F9211242F935F936F937F93E8
:100410008F939F93AF93BF93EF93FF93E0912D0141
:10042000F0912E018081E0913301F091340182FD41
:1004300016C020818091360190E0019668EC70E052
:100440000E947C0390913701981751F0E09136019A
:10045000F0E0E35EFE4F258F8093360101C080817E
:10046000FF91EF91BF91AF919F918F917F916F918C
:100470005F912F910F900FBE0F901F9018951F92B4
:100480000F920FB60F9211242F933F938F939F9348
:10049000AF93BF938091150190911601A091170120
:1004A000B09118013091140123E0230F2D3720F46F
:1004B0000196A11DB11D05C026E8230F0296A11DBE
:1004C000B11D209314018093150190931601A09300
:1004D0001701B09318018091190190911A01A09110
:1004E0001B01B0911C010196A11DB11D8093190142
:1004F00090931A01A0931B01B0931C01BF91AF917F
:100500009F918F913F912F910F900FBE0F901F9051
:100510001895789484B5826084BD84B5816084BD6B
:1005200085B5826085BD85B5816085BD80916E0091
:10053000816080936E0010928100809181008260C2
:1005400080938100809181008160809381008091FF
:1005500080008160809380008091B10084608093EE
:10056000B1008091B00081608093B00080917A00EA
:10057000846080937A0080917A00826080937A0010
:1005800080917A00816080937A0080917A008068FF
:1005900080937A001092C100E0912D01F0912E011C
:1005A00082E08083E0912901F0912A011082E0919C
:1005B0002B01F0912C018FEC808310923501E0919A
:1005C0003101F091320186E08083E0912F01F091BA
:1005D0003001808180618083E0912F01F0913001B2
:1005E000808188608083E0912F01F09130018081CB
:1005F00080688083E0912F01F091300180818F7DB0
:100600008083C0E4C0937C0080917A0080648093F2
:100610007A0080917A0086FDFCCF8091780020914D
:10062000790090E0922B6C01092E000CEE08FF0877
:1006300097FF14C0E0911D01F0911E010190F0811F
:10064000E02D6DE28DE191E0099566277727CB01DA
:100650006C197D098E099F094AE003C04AE0C70171
:10066000B6010E94860142E050E060E171E08DE158
:1006700091E00E945F000E9461016B017C010E9479
:100680006101DC01CB018C199D09AE09BF09883ECF
:100690009340A105B10598F30E945701B3CFEDE156
:1006A000F1E01382128288EE93E0A0E0B0E0848350
:1006B0009583A683B78384E091E09183808385EC62
:1006C00090E09587848784EC90E09787868780EC1C
:1006D00090E0918B808B81EC90E0938B828B82EC0D
:1006E00090E0958B848B86EC90E0978B868B118EB7
:1006F000128E138E148E0895AA1BBB1B51E107C0E6
:10070000AA1FBB1FA617B70710F0A61BB70B881FA1
:10071000991F5A95A9F780959095BC01CD01089530
:1007200097FB072E16F4009407D077FD09D00E949E
:100730007C0307FC05D03EF4909581959F4F08956A
:10074000709561957F4F0895A1E21A2EAA1BBB1BDD
:10075000FD010DC0AA1FBB1FEE1FFF1FA217B3078D
:10076000E407F50720F0A21BB30BE40BF50B661FA3
:10077000771F881F991F1A9469F760957095809567
:1007800090959B01AC01BD01CF010895EE0FFF1FB5
:100790000590F491E02D099481E090E0F8940C9498
:0607A000D103F894FFCF25
:1007A60000000000EE005F00B3008A00A5003501DE
:0407B6000D0A000028
:00000001FF
