:100000000C9435000C945D000C945D000C945D0024
:100010000C945D000C945D000C945D000C945D00EC
:100020000C945D000C945D000C945D000C945D00DC
:100030000C945D000C945D000C945D000C945D00CC
:100040000C94B3020C945D000C9473020C944D025A
:100050000C945D000C945D000C945D000C945D00AC
:100060000C945D000C945D00CD0311241FBECFEFF6
:10007000D8E0DEBFCDBF11E0A0E0B1E0E2EAF8E0F9
:1000800002C005900D92A831B107D9F722E0A8E18E
:10009000B1E001C01D92A03DB207E1F710E0C5E359
:1000A000D0E004C02197FE010E944404C433D1076C
:1000B000C9F70E94FD020C944F040C940000CF92EB
:1000C000DF92EF92FF920F931F93CF93DF936C0118
:1000D0007A018B01C0E0D0E0CE15DF0589F0D801B0
:1000E0006D918D01D601ED91FC910190F081E02D93
:1000F000C6010995892B11F47E0102C02196ECCF2F
:10010000C701DF91CF911F910F91FF90EF90DF908A
:10011000CF900895FC01918D828D981799F0828D72
:10012000DF01A80FB11D5D968C91228D2F5F91E0AC
:10013000283C08F490E038E3939F200D1124228F8F
:1001400090E008958FEF9FEF0895FC01918D828DCF
:10015000981731F0828DE80FF11D858D90E008959C
:100160008FEF9FEF0895FC01918D228D892F90E0F4
:1001700088539F4F821B910968EC70E00E94FA033C
:10018000089583E291E00E94B30021E0892B09F4F5
:1001900020E0822F0895FC01848DDF01A80FB11D9E
:1001A000AB51BF4F2C91848D90E0019668EC70E0CC
:1001B0000E940E04848FA689B7892C93A089B189E7
:1001C0008C9180648C93938D848D981306C00288E3
:1001D000F389E02D80818F7D80830895FF920F93B6
:1001E0001F93CF93DF93EC0181E0888F9B8D8C8DE3
:1001F000981305C0E889F989808185FD26C0162FEE
:100200008B8D90E0019668EC70E00E940E04082F40
:10021000F82E8C8DF8120CC00FB607FCFACFE889C7
:10022000F989808185FFF5CFCE010E94CB00F1CF07
:100230008B8DFE01E80FF11DEB51FF4F10830B8FEB
:10024000EA89FB898081806207C0EE89FF8960832B
:10025000E889F98980818064808381E090E0DF9182
:10026000CF911F910F91FF900895CF93DF93EC01F1
:10027000888D8823C9F0EA89FB89808185FD05C0C6
:10028000A889B9898C9186FD0FC00FB607FCF5CF00
:10029000808185FFF2CFA889B9898C9185FFEDCF48
:1002A000CE010E94CB00E7CFDF91CF91089580E08F
:1002B00090E0892B29F00E94C10081110C9400006C
:1002C00008958E3008F08E508770806480937C0093
:1002D00080917A00806480937A0080917A0086FD14
:1002E000FCCF809178002091790090E0922B0895C6
:1002F0003FB7F89480911D0190911E01A0911F01BC
:10030000B091200126B5A89B05C02F3F19F001969A
:10031000A11DB11D3FBFBA2FA92F982F8827820F8B
:10032000911DA11DB11DBC01CD0142E0660F771FDB
:10033000881F991F4A95D1F70895CF92DF92EF92C7
:10034000FF920E9478016B017C010E947801DC0120
:10035000CB018C199D09AE09BF09883E9340A105C8
:10036000B10598F3FF90EF90DF90CF90089500973C
:1003700069F0FC0101900020E9F73197AF01481BBB
:10038000590BBC0183E291E00C945F0080E090E0A7
:1003900008958F929F92AF92BF92CF92DF92EF9289
:1003A000FF920F931F93CF93DF93CDB7DEB7A19743
:1003B0000FB6F894DEBF0FBECDBF6C01990FEE08EB
:1003C000FF08F7FE31C0E0912301F0912401019074
:1003D000F081E02D6DE283E291E009958C01222706
:1003E0003327A9012C193D094E095F0919A2CE0135
:1003F00081967C019AE0892E912CA12CB12CCA0106
:10040000B901A50194010E942204605DF701629385
:100410007F01211531054105510589F7CF010E9462
:10042000B701080F191F1EC0A701960119A28E015E
:100430000F5D1F4F8AE0C82ED12CE12CF12CCA0190
:10044000B901A70196010E942204605DF801629340
:100450008F01211531054105510589F7CF010E9412
:10046000B7018C0180E191E00E94B701800F911FDC
:10047000A1960FB6F894DEBF0FBECDBFDF91CF912E
:100480001F910F91FF90EF90DF90CF90BF90AF90B2
:100490009F908F9008950E944A041F920F920FB66A
:1004A0000F9211242F933F934F935F936F937F93FA
:1004B0008F939F93AF93BF93EF93FF9383E291E06A
:1004C0000E94CB00FF91EF91BF91AF919F918F91CF
:1004D0007F916F915F914F913F912F910F900FBE40
:1004E0000F901F9018951F920F920FB60F92112424
:1004F0002F935F936F937F938F939F93AF93BF934C
:10050000EF93FF93E0913301F09134018081E0910A
:100510003901F0913A0182FD16C0208180913C01A1
:1005200090E0019668EC70E00E94FA0390913D0122
:10053000981751F0E0913C01F0E0ED5DFE4F258F02
:1005400080933C0101C08081FF91EF91BF91AF91F9
:100550009F918F917F916F915F912F910F900FBE1F
:100560000F901F9018951F920F920FB60F921124A3
:100570002F933F938F939F93AF93BF9380911901D4
:1005800090911A01A0911B01B0911C0130911801AA
:1005900023E0230F2D3720F40196A11DB11D05C0C6
:1005A00026E8230F0296A11DB11D20931801809308
:1005B000190190931A01A0931B01B0931C01809123
:1005C0001D0190911E01A0911F01B0912001019683
:1005D000A11DB11D80931D0190931E01A0931F01C9
:1005E000B0932001BF91AF919F918F913F912F9137
:1005F0000F900FBE0F901F901895789484B582606D
:1006000084BD84B5816084BD85B5826085BD85B5B6
:10061000816085BD80916E00816080936E00109234
:1006200081008091810082608093810080918100AF
:100630008160809381008091800081608093800040
:100640008091B10084608093B1008091B00081609E
:100650008093B00080917A00846080937A008091CA
:100660007A00826080937A0080917A008160809322
:100670007A0080917A00806880937A001092C1009D
:10068000E0913301F091340182E08083E0912F0109
:10069000F09130011082E0913101F09132018FEC44
:1006A000808310923B01E0913701F091380186E0A0
:1006B0008083E0913501F0913601808180618083F3
:1006C000E0913501F0913601808188608083E0916E
:1006D0003501F0913601808180688083E091350199
:1006E000F091360180818F7D808388248394912CC2
:1006F0008091210190912201892B09F04BC09092A9
:100700002201809221018EE00E9461015C010E9421
:10071000C9010E949D018FE00E9461016C010E944D
:10072000C9010E949D0180E10E9461017C010E943B
:10073000C9010E949D0181E10E9461018C010E941A
:10074000C9010E949D0182E10E946101EC010E94A9
:10075000C9010E949D0185EFA81681E0B806D4F07A
:1007600085EFC81681E0D806ACF085EFE81681E089
:10077000F80684F0053F11406CF0C53FD14054F0BD
:1007800083E191E00E94B70180E191E00E94B7010E
:100790000E949D010E945701ABCFE3E2F1E013827A
:1007A000128288EE93E0A0E0B0E084839583A68374
:1007B000B78384E091E09183808385EC90E0958716
:1007C000848784EC90E09787868780EC90E0918B1B
:1007D000808B81EC90E0938B828B82EC90E0958B08
:1007E000848B86EC90E0978B868B118E128E138E05
:1007F000148E0895AA1BBB1B51E107C0AA1FBB1F83
:10080000A617B70710F0A61BB70B881F991F5A959C
:10081000A9F780959095BC01CD01089597FB072E0F
:1008200016F4009407D077FD09D00E94FA0307FC64
:1008300005D03EF4909581959F4F089570956195F0
:100840007F4F0895A1E21A2EAA1BBB1BFD010DC00C
:10085000AA1FBB1FEE1FFF1FA217B307E407F50770
:1008600020F0A21BB30BE40BF50B661F771F881F4C
:10087000991F1A9469F760957095809590959B01E2
:10088000AC01BD01CF010895EE0FFF1F0590F4915B
:10089000E02D099481E090E0F8940C944F04F894D2
:0208A000FFCF88
:1008A20000000000EE005F00B3008A00A5003501E1
:0808B2000D0A0061727961007A
:00000001FF
