:100000000C945D000C9485000C9485000C94850084
:100010000C9485000C9485000C9485000C9485004C
:100020000C9485000C9485000C9485000C9485003C
:100030000C9485000C9485000C9485000C9485002C
:100040000C94EB030C9485000C94AB030C94850387
:100050000C9485000C9485000C9485000C9485000C
:100060000C9485000C94850000000008000201003B
:100070000003040700000000000000000000000072
:10008000250028002B0000000000240027002A0083
:10009000040404040404040402020202020203032E
:1000A0000303030301020408102040800102040836
:1000B0001020010204081020350411241FBECFEFC8
:1000C000D8E0DEBFCDBF11E0A0E0B1E0ECEDFBE099
:1000D00002C005900D92A831B107D9F722E0A8E13E
:1000E000B1E001C01D92AA3EB207E1F710E0CDE5F4
:1000F000D0E004C02197FE010E94E105CC35D10774
:10010000C9F70E9480040C94EC050C94000090E068
:10011000FC01EC55FF4F2491FC01E057FF4F849107
:10012000882399F090E0880F991FFC01EA57FF4F50
:10013000A591B491FC01E458FF4F859194918FB73C
:10014000F894EC91E22BEC938FBF0895CF92DF925D
:10015000EF92FF920F931F93CF93DF936C017A017D
:100160008B01C0E0D0E0CE15DF0589F0D8016D919C
:100170008D01D601ED91FC910190F081E02DC60139
:100180000995892B11F47E0102C02196ECCFC7019D
:10019000DF91CF911F910F91FF90EF90DF90CF9063
:1001A0000895FC01918D828D981799F0828DDF0161
:1001B000A80FB11D5D968C91228D2F5F91E0283C98
:1001C00008F490E038E3939F200D1124228F90E0F3
:1001D00008958FEF9FEF0895FC01918D828D981700
:1001E00031F0828DE80FF11D858D90E008958FEF3D
:1001F0009FEF0895FC01918D228D892F90E0885307
:100200009F4F821B910968EC70E00E94970508954A
:1002100085E291E00E94FA0021E0892B09F420E0B8
:10022000822F0895FC01848DDF01A80FB11DAB5111
:10023000BF4F2C91848D90E0019668EC70E00E9495
:10024000AB05848FA689B7892C93A089B1898C913D
:1002500080648C93938D848D981306C00288F389F3
:10026000E02D80818F7D80830895FF920F931F93EF
:10027000CF93DF93EC0181E0888F9B8D8C8D981359
:1002800005C0E889F989808185FD26C0162F8B8DF0
:1002900090E0019668EC70E00E94AB05082FF82E04
:1002A0008C8DF8120CC00FB607FCFACFE889F989DB
:1002B000808185FFF5CFCE010E941201F1CF8B8D99
:1002C000FE01E80FF11DEB51FF4F10830B8FEA8900
:1002D000FB898081806207C0EE89FF896083E8899D
:1002E000F98980818064808381E090E0DF91CF9103
:1002F0001F910F91FF900895CF93DF93EC01888DAC
:100300008823C9F0EA89FB89808185FD05C0A88919
:10031000B9898C9186FD0FC00FB607FCF5CF80819F
:1003200085FFF2CFA889B9898C9185FFEDCFCE01E9
:100330000E941201E7CFDF91CF91089580E090E015
:10034000892B29F00E94080181110C940000089566
:1003500090E0FC01E859FF4F3491FC01EC55FF4F50
:100360002491FC01E057FF4FE491EE2309F43BC0D8
:10037000332339F1333091F038F43130A9F0323091
:1003800001F584B58F7D12C0373091F03830A1F07F
:100390003430B9F4809180008F7D03C0809180005B
:1003A0008F77809380000DC084B58F7784BD09C09E
:1003B0008091B0008F7703C08091B0008F7D8093D3
:1003C000B000F0E0EE0FFF1FE458FF4FA591B4918D
:1003D0008FB7F894EC91611103C020952E2301C0D2
:1003E0002E2B2C938FBF0895CF93DF93EC0160E009
:1003F0008E810E94A80161E08E810E94A80160E0C8
:100400008E810E94A8018BE891E00197F1F7DF91BE
:10041000CF910895CF92DF92EF92FF920F931F93A7
:10042000CF93DF937C016C0187E0C80ED11CC0E044
:10043000D0E0062F10E0B8010C2E02C0759567952C
:100440000A94E2F76170F60181916F010E94A801A0
:100450002196C430D10579F7C701DF91CF911F9163
:100460000F91FF90EF90DF90CF900C94F401CF921A
:10047000DF92EF92FF920F931F93CF93DF93EC01E4
:10048000F62E642F8C810E94A8018D818F3F19F078
:1004900060E00E94A8018F850F2D10E084FF25C029
:1004A0006E0187E0C80ED11CE12CF12CB8010E2C96
:1004B00002C0759567950A94E2F76170F601819123
:1004C0006F010E94A801FFEFEF1AFF0A88E0E8160B
:1004D000F10461F7CE01DF91CF911F910F91FF9051
:1004E000EF90DF90CF900C94F401B80184E0759503
:1004F00067958A95E1F7CE010E940A026F2DCE0121
:10050000DF91CF911F910F91FF90EF90DF90CF90EF
:100510000C940A0241E00E94370281E090E00895C5
:1005200040E00C943702EF92FF920F931F93CF930A
:10053000DF93EC01623018F08F8588608F876B8BBA
:100540001C8A80E48D8B80E18E8B80E58F8B8C8183
:100550000E9487008D818F3F11F00E9487008E815D
:100560000E9487007E0187E0E80EF11C00E010E0A9
:100570008F8584FD03C084E090E002C088E090E0B5
:100580000817190744F4F70181917F010E94870041
:100590000F5F1F4FEDCF8BE39DE00197F1F760E018
:1005A0008C810E94A80160E08E810E94A8018D814B
:1005B0008F3F19F060E00E94A8016F8564FD1DC0A7
:1005C00063E0CE010E940A020BE416E4C801019721
:1005D000F1F763E0CE010E940A02C8010197F1F72A
:1005E00063E0CE010E940A0283E592E00197F1F7F1
:1005F00062E0CE010E940A0216C06062CE010E9433
:1006000090028BE496E40197F1F76F856062CE016A
:100610000E94900283E592E00197F1F76F85606296
:10062000CE010E9490026F856062CE010E9490020E
:1006300084E0888B6CE0CE010E94900261E0CE01E4
:100640000E9490028BE39FE10197F1F782E0898B92
:1006500066E0CE01DF91CF911F910F91FF90EF9057
:100660000C9490028F929F92AF92BF920F931F9320
:10067000CF93DF93CDB7DEB7A1970FB6F894DEBF67
:100680000FBECDBF19A2423008F44AE08E010F5DC3
:100690001F4F842E912CA12CB12CA50194010E94F6
:1006A000BF05E62FB901CA0101501109EA3014F45F
:1006B000E05D01C0E95CD801EC93232B242B252BB2
:1006C00061F70115110571F0F80101900020E9F7BB
:1006D0003197AF01401B510BB80182ED92E00E94AF
:1006E000A60002C080E090E0A1960FB6F894DEBFAD
:1006F0000FBECDBFDF91CF911F910F91BF90AF90F3
:100700009F908F9008950E94E7051F920F920FB659
:100710000F9211242F933F934F935F936F937F9387
:100720008F939F93AF93BF93EF93FF9385E291E0F5
:100730000E941201FF91EF91BF91AF919F918F9114
:100740007F916F915F914F913F912F910F900FBECD
:100750000F901F9018951F920F920FB60F921124B1
:100760002F935F936F937F938F939F93AF93BF93D9
:10077000EF93FF93E0913501F09136018081E09194
:100780003B01F0913C0182FD16C0208180913E0129
:1007900090E0019668EC70E00E94970590913F010F
:1007A000981751F0E0913E01F0E0EB5DFE4F258F90
:1007B00080933E0101C08081FF91EF91BF91AF9185
:1007C0009F918F917F916F915F912F910F900FBEAD
:1007D0000F901F9018951F920F920FB60F92112431
:1007E0002F933F938F939F93AF93BF9380911D015E
:1007F00090911E01A0911F01B091200130911C0128
:1008000023E0230F2D3720F40196A11DB11D05C053
:1008100026E8230F0296A11DB11D20931C01809391
:100820001D0190931E01A0931F01B09320018091A0
:10083000180190911901A0911A01B0911B01019624
:10084000A11DB11D8093180190931901A0931A0165
:10085000B0931B01BF91AF919F918F913F912F91C9
:100860000F900FBE0F901F901895E5E2F1E01382F4
:10087000128288EE93E0A0E0B0E084839583A683A3
:10088000B78384E091E09183808385EC90E0958745
:10089000848784EC90E09787868780EC90E0918B4A
:1008A000808B81EC90E0938B828B82EC90E0958B37
:1008B000848B86EC90E0978B868B118E128E138E34
:1008C000148EE2EDF2E01382128284E191E09183D2
:1008D00080838CE084838FEF85838BE0868385E043
:1008E000878384E0808783E0818782E08287138624
:1008F000148615861686178661E0CF010C94930244
:10090000789484B5826084BD84B5816084BD85B5EA
:10091000826085BD85B5816085BD80916E008160F6
:1009200080936E001092810080918100826080939C
:10093000810080918100816080938100809180009E
:100940008160809380008091B10084608093B100C9
:100950008091B00081608093B00080917A008460C3
:1009600080937A0080917A00826080937A008091EF
:100970007A00816080937A0080917A008068809309
:100980007A001092C100E0913501F091360182E0C9
:100990008083E0913101F09132011082E0913301C6
:1009A000F09134018FEC808310923D01E091390188
:1009B000F0913A0186E08083E0913701F0913801AF
:1009C000808180618083E0913701F09138018081DE
:1009D00088608083E0913701F091380180818068E0
:1009E0008083E0913701F091380180818F7D808391
:1009F00062E082ED92E00E949302E1E08091E502E4
:100A00008111E0E0E195F0E0EE52FD4F648960680D
:100A100082ED92E00E949002C4E0D0E003E010E09A
:100A200082E0A82EB12CE091E502E23010F4E15012
:100A300001C0E1E0F0E0EE52FD4F6489606882EDB4
:100A400092E00E94900285E291E00E94FA0018165E
:100A500019069CF585E291E00E94D100833751F49C
:100A60008091230190912401019690932401809319
:100A7000230123C0823759F48091230190912401EE
:100A80000197D9F4B0922401A092230116C08536B3
:100A9000B9F48091230190912401029721F41093DD
:100AA0002401009323018091230190912401039755
:100AB00021F4D0932401C09323010E949E01B3CF5F
:100AC0008A37D9F780912301909124010497A9F7DF
:100AD0001092240110922301C0902101D090220194
:100AE0008FEFC81AD80AD0922201C09221010D2C92
:100AF000000CEE08FF08F7FE14C0E091D202F0915E
:100B0000D3020190F081E02D6DE282ED92E0099533
:100B100066277727CB016C197D098E099F094AE06A
:100B200003C04AE0C701B6010E943203C6CFAA1B28
:100B3000BB1B51E107C0AA1FBB1FA617B70710F0C8
:100B4000A61BB70B881F991F5A95A9F780959095FA
:100B5000BC01CD01089597FB072E16F4009407D031
:100B600077FD09D00E94970507FC05D03EF49095CB
:100B700081959F4F0895709561957F4F0895A1E2EB
:100B80001A2EAA1BBB1BFD010DC0AA1FBB1FEE1F07
:100B9000FF1FA217B307E407F50720F0A21BB30B52
:100BA000E40BF50B661F771F881F991F1A9469F7CE
:100BB00060957095809590959B01AC01BD01CF012A
:100BC0000895EE0FFF1F0590F491E02D099481E048
:0C0BD00090E0F8940C94EC05F894FFCF32
:100BDC00000000003501A600FA00D100EC007C01F9
:080BEC00000000008A02A600CF
:107E0000112484B714BE81FFF0D085E080938100F7
:107E100082E08093C00088E18093C10086E0809377
:107E2000C20080E18093C4008EE0C9D0259A86E02C
:107E300020E33CEF91E0309385002093840096BBD3
:107E4000B09BFECF1D9AA8958150A9F7CC24DD24C4
:107E500088248394B5E0AB2EA1E19A2EF3E0BF2EE7
:107E6000A2D0813461F49FD0082FAFD0023811F036
:107E7000013811F484E001C083E08DD089C08234E0
:107E800011F484E103C0853419F485E0A6D080C0E4
:107E9000853579F488D0E82EFF2485D0082F10E0AE
:107EA000102F00270E291F29000F111F8ED06801E7
:107EB0006FC0863521F484E090D080E0DECF843638
:107EC00009F040C070D06FD0082F6DD080E0C81688
:107ED00080E7D80618F4F601B7BEE895C0E0D1E017
:107EE00062D089930C17E1F7F0E0CF16F0E7DF06D8
:107EF00018F0F601B7BEE89568D007B600FCFDCFD4
:107F0000A601A0E0B1E02C9130E011968C91119780
:107F100090E0982F8827822B932B1296FA010C0160
:107F200087BEE89511244E5F5F4FF1E0A038BF0790
:107F300051F7F601A7BEE89507B600FCFDCF97BE46
:107F4000E89526C08437B1F42ED02DD0F82E2BD052
:107F50003CD0F601EF2C8F010F5F1F4F84911BD097
:107F6000EA94F801C1F70894C11CD11CFA94CF0C13
:107F7000D11C0EC0853739F428D08EE10CD085E9AC
:107F80000AD08FE07ACF813511F488E018D01DD067
:107F900080E101D065CF982F8091C00085FFFCCF94
:107FA0009093C60008958091C00087FFFCCF809118
:107FB000C00084FD01C0A8958091C6000895E0E648
:107FC000F0E098E1908380830895EDDF803219F02E
:107FD00088E0F5DFFFCF84E1DECF1F93182FE3DFCA
:107FE0001150E9F7F2DF1F91089580E0E8DFEE27F6
:047FF000FF270994CA
:027FFE00040479
:0400000300007E007B
:00000001FF
