:100000000C9453000C947B000C947B000C947B00AC
:100010000C947B000C947B000C947B000C947B0074
:100020000C947B000C947B000C947B000C947B0064
:100030000C947B000C947B000C947B000C947B0054
:100040000C9444030C947B000C9404030C94DE0287
:100050000C947B000C947B000C947B000C947B0034
:100060000C947B000C947B0000000000250028000D
:100070002B0000000000240027002A0004040404D0
:100080000404040402020202020203030303030342
:10009000010204081020408001020408102001021F
:1000A00004081020CA0411241FBECFEFD8E0DEBF21
:1000B000CDBF11E0A0E0B1E0E4E1FFE002C00590B7
:1000C0000D92AC33B107D9F722E0ACE3B1E001C047
:1000D0001D92AA3FB207E1F710E0C3E5D0E004C0EB
:1000E0002197FE010E944105C235D107C9F70E9440
:1000F0008E030C9488070C940000CF92DF92EF924D
:10010000FF920F931F93CF93DF936C017A018B01C2
:10011000C0E0D0E0CE15DF0589F0D8016D918D01EA
:10012000D601ED91FC910190F081E02DC601099579
:10013000892B11F47E0102C02196ECCFC701DF911B
:10014000CF911F910F91FF90EF90DF90CF90089586
:10015000FC01918D828D981799F0828DDF01A80F97
:10016000B11D5D968C91228D2F5F91E0283C08F4A3
:1001700090E038E3939F200D1124228F90E00895A2
:100180008FEF9FEF0895FC01918D828D981731F0CC
:10019000828DE80FF11D858D90E008958FEF9FEF20
:1001A0000895FC01918D228D892F90E088539F4FF7
:1001B000821B910968EC70E00E94F70408958DE4B9
:1001C00091E00E94D10021E0892B09F420E0822FE8
:1001D0000895FC01848DDF01A80FB11DAB51BF4F05
:1001E0002C91848D90E0019668EC70E00E940B05E4
:1001F000848FA689B7892C93A089B1898C9180645A
:100200008C93938D848D981306C00288F389E02D1A
:1002100080818F7D80830895FF920F931F93CF93EA
:10022000DF93EC0181E0888F9B8D8C8D981305C046
:10023000E889F989808185FD26C0162F8B8D90E095
:10024000019668EC70E00E940B05082FF82E8C8D4B
:10025000F8120CC00FB607FCFACFE889F989808143
:1002600085FFF5CFCE010E94E900F1CF8B8DFE0115
:10027000E80FF11DEB51FF4F10830B8FEA89FB89CB
:100280008081806207C0EE89FF896083E889F989EF
:1002900080818064808381E090E0DF91CF911F9125
:1002A0000F91FF900895CF93DF93EC01888D882301
:1002B000C9F0EA89FB89808185FD05C0A889B989D3
:1002C0008C9186FD0FC00FB607FCF5CF808185FFAE
:1002D000F2CFA889B9898C9185FFEDCFCE010E941C
:1002E000E900E7CFDF91CF91089580E090E0892B7E
:1002F00029F00E94DF0081110C94000008953FB79F
:10030000F8948091410190914201A0914301B091F4
:10031000440126B5A89B05C02F3F19F00196A11DE9
:10032000B11D3FBFBA2FA92F982F8827820F911D8B
:10033000A11DB11DBC01CD0142E0660F771F881FD2
:10034000991F4A95D1F70895009769F0FC01019033
:100350000020E9F73197AF01481B590BBC018DE430
:1003600091E00C947D0080E090E008958F929F9240
:10037000AF92BF920F931F93CF93DF93CDB7DEB7AA
:10038000A1970FB6F894DEBF0FBECDBF19A24230C1
:1003900008F44AE08E010F5D1F4F842E912CA12C92
:1003A000B12CA50194010E941F05E62FB901CA01D5
:1003B00001501109EA3014F4E05D01C0E95CD80194
:1003C000EC93232B242B252B61F7C8010E94A40159
:1003D000A1960FB6F894DEBF0FBECDBFDF91CF91CF
:1003E0001F910F91BF90AF909F908F900895CF93E2
:1003F000DF930E94A401EC0180E191E00E94A4013E
:100400008C0F9D1FDF91CF9108954F925F926F9255
:100410007F928F929F92AF92BF92CF92DF92EF9294
:10042000FF926B017C019B01AC010E947E07882337
:1004300019F083E191E01AC046015701E894B7F83A
:100440002FEF3FEF4FE75FE7C501B4010E947E0742
:10045000811110C02FEF3FEF4FE75FE7C501B401F7
:100460000E94B405181634F487E191E00E94A401BB
:100470007C018FC02FEF3FEF4FE75FE4C701B6016C
:100480000E940C0718161CF48BE191E0EFCF2FEFC0
:100490003FEF4FE75FECC701B6010E94B40587FD4F
:1004A000F3CF20E030E0A901C701B6010E94B405F6
:1004B00087FF11C0E0914D01F0914E010190F08154
:1004C000E02D6DE28DE491E009955C01F7FAF0947E
:1004D000F7F8F09402C0A12CB12C2AE037ED43EAE2
:1004E0005BE3C701B6010E9448052B013C010E9455
:1004F0002B066B017C010E945A069B01AC01C301D3
:10050000B2010E9447052B013C014AE0C701B60138
:100510000E94B6017C01EA0CFB1CE0914D01F091B8
:100520004E010190F081E02D6EE28DE491E009959D
:10053000E80EF91E20E030E040E251E4C301B201D0
:100540000E9411072B013C010E942B064B01A12C9C
:10055000B12C4AE0C501B4010E94B601E80EF91EB3
:10056000C501B4010E945A069B01AC01C301B2014E
:100570000E94470520E030E040E251E40E9411076C
:100580000E942B0680E090E04AE00E94B601E80E4F
:10059000F91E80E191E00E94A4018E0D9F1DFF9045
:1005A000EF90DF90CF90BF90AF909F908F907F9013
:1005B0006F905F904F9008950E9483071F920F9253
:1005C0000FB60F9211242F933F934F935F936F9326
:1005D0007F938F939F93AF93BF93EF93FF938DE49C
:1005E00091E00E94E900FF91EF91BF91AF919F913F
:1005F0008F917F916F915F914F913F912F910F90CC
:100600000FBE0F901F9018951F920F920FB60F926A
:1006100011242F935F936F937F938F939F93AF9347
:10062000BF93EF93FF93E0915D01F0915E018081B4
:10063000E0916301F091640182FD16C020818091F8
:10064000660190E0019668EC70E00E94F7049091DA
:100650006701981751F0E0916601F0E0E35BFE4F0F
:10066000258F8093660101C08081FF91EF91BF913A
:10067000AF919F918F917F916F915F912F910F908B
:100680000FBE0F901F9018951F920F920FB60F92EA
:1006900011242F933F938F939F93AF93BF93809198
:1006A0003D0190913E01A0913F01B09140013091F8
:1006B0003C0123E0230F2D3720F40196A11DB11D2D
:1006C00005C026E8230F0296A11DB11D20933C0111
:1006D00080933D0190933E01A0933F01B093400170
:1006E0008091410190914201A0914301B091440158
:1006F0000196A11DB11D8093410190934201A093E9
:100700004301B0934401BF91AF919F918F913F916D
:100710002F910F900FBE0F901F901895789484B56D
:10072000826084BD84B5816084BD85B5826085BDED
:1007300085B5816085BD80916E00816080936E007B
:10074000109281008091810082608093810080916D
:10075000810081608093810080918000816080931E
:1007600080008091B10084608093B1008091B000DE
:1007700081608093B00080917A00846080937A00D9
:1007800080917A00826080937A0080917A00816003
:1007900080937A0080917A00806880937A0010922A
:1007A000C100E0915D01F0915E0182E08083E09103
:1007B0005901F0915A011082E0915B01F0915C01C6
:1007C0008FEC808310926501E0916101F0916201EC
:1007D00086E08083E0915F01F0916001808180611B
:1007E0008083E0915F01F091600180818860808367
:1007F000E0915F01F0916001808180688083E091E9
:100800005F01F091600180818F7D8083EFE9F0E0EE
:100810002491EBE8F0E084918823C1F090E0880F08
:10082000991FFC01EE58FF4FC591D491FC01E85986
:10083000FF4FA591B4919FB7F8948881E22FE0957E
:100840008E2388838C91E823EC939FBFC1E4C093EF
:100850007C0080917A00806480937A0080917A0095
:1008600086FDFCCF609178008091790070E0782B54
:10087000072E000C880B990B0E945C0626EF38E2CD
:100880004CE950E40E94110720E030E040E251E4DE
:100890000E94B9056093490170934A0180934B010E
:1008A00090934C018FE191E00E94F7018FE291E07B
:1008B0000E94F7016091490170914A0180914B01BA
:1008C00090914C010E9405028FE291E00E94F70195
:1008D00020E030E040E151E46091490170914A012B
:1008E00080914B0190914C010E94110720E030E073
:1008F00040EA50E40E94B90520E030E040E052E4D4
:100900000E9448056093450170934601809347011A
:100910009093480181E391E00E94F7018FE291E01A
:100920000E94F70160914501709146018091470155
:10093000909148010E94050280E191E00E94A4018B
:100940000E947F014B015C0188EEC82E83E0D82E07
:10095000E12CF12C0E947F01DC01CB01881999095F
:10096000AA09BB09883E9340A105B10558F021E0D2
:10097000C21AD108E108F10888EE880E83E0981EBB
:10098000A11CB11CC114D104E104F10419F70E94A7
:1009900075015DCFEDE4F1E01382128288EE93E001
:1009A000A0E0B0E084839583A683B78384E091E0E0
:1009B0009183808385EC90E09587848784EC90E038
:1009C0009787868780EC90E0918B808B81EC90E01C
:1009D000938B828B82EC90E0958B848B86EC90E0FD
:1009E000978B868B118E128E138E148E0895AA1BF0
:1009F000BB1B51E107C0AA1FBB1FA617B70710F00A
:100A0000A61BB70B881F991F5A95A9F7809590953B
:100A1000BC01CD01089597FB072E16F4009407D072
:100A200077FD09D00E94F70407FC05D03EF49095AD
:100A300081959F4F0895709561957F4F0895A1E22C
:100A40001A2EAA1BBB1BFD010DC0AA1FBB1FEE1F48
:100A5000FF1FA217B307E407F50720F0A21BB30B93
:100A6000E40BF50B661F771F881F991F1A9469F70F
:100A700060957095809590959B01AC01BD01CF016B
:100A80000895EE0FFF1F0590F491E02D0994505842
:100A9000BB27AA270E945F050C94D2060E94C406B9
:100AA00038F00E94CB0620F039F49F3F19F426F469
:100AB0000C94C1060EF4E095E7FB0C94BB06E92FFD
:100AC0000E94E30658F3BA17620773078407950775
:100AD00020F079F4A6F50C9405070EF4E0950B2EA2
:100AE000BA2FA02D0B01B90190010C01CA01A00180
:100AF0001124FF27591B99F0593F50F4503E68F1DB
:100B00001A16F040A22F232F342F4427585FF3CF1B
:100B1000469537952795A795F0405395C9F77EF4EC
:100B20001F16BA0B620B730B840BBAF09150A1F035
:100B3000FF0FBB1F661F771F881FC2F70EC0BA0FBB
:100B4000621F731F841F48F4879577956795B79543
:100B5000F7959E3F08F0B0CF9395880F08F099273E
:100B6000EE0F9795879508950E94970608F481E007
:100B700008950E94CD050C94D2060E94CB0658F031
:100B80000E94C40640F029F45F3F29F00C94BB0694
:100B900051110C9406070C94C1060E94E30668F3F9
:100BA0009923B1F3552391F3951B550BBB27AA2726
:100BB00062177307840738F09F5F5F4F220F331F60
:100BC000441FAA1FA9F335D00E2E3AF0E0E832D028
:100BD00091505040E695001CCAF72BD0FE2F29D02B
:100BE000660F771F881FBB1F261737074807AB07FD
:100BF000B0E809F0BB0B802DBF01FF2793585F4F72
:100C00003AF09E3F510578F00C94BB060C94060711
:100C10005F3FE4F3983ED4F3869577956795B79553
:100C2000F7959F5FC9F7880F911D9695879597F95E
:100C30000895E1E0660F771F881FBB1F62177307D7
:100C40008407BA0720F0621B730B840BBA0BEE1FEC
:100C500088F7E09508950E94EB0688F09F5798F07A
:100C6000B92F9927B751B0F0E1F0660F771F881FB1
:100C7000991F1AF0BA95C9F714C0B13091F00E94CB
:100C80000507B1E008950C940507672F782F882792
:100C9000B85F39F0B93FCCF3869577956795B395F2
:100CA000D9F73EF490958095709561957F4F8F4F61
:100CB0009F4F0895E89409C097FB3EF49095809566
:100CC000709561957F4F8F4F9F4F9923A9F0F92F12
:100CD00096E9BB279395F695879577956795B79590
:100CE000F111F8CFFAF4BB0F11F460FF1BC06F5F76
:100CF0007F4F8F4F9F4F16C0882311F096E911C088
:100D0000772321F09EE8872F762F05C0662371F0A8
:100D100096E8862F70E060E02AF09A95660F771FBC
:100D2000881FDAF7880F9695879597F90895990F98
:100D30000008550FAA0BE0E8FEEF16161706E807A5
:100D4000F907C0F012161306E407F50798F0621BC6
:100D5000730B840B950B39F40A2661F0232B242B9B
:100D6000252B21F408950A2609F4A140A6958FEFBA
:100D7000811D811D089597F99F6780E870E060E00C
:100D800008959FEF80EC089500240A941616170624
:100D900018060906089500240A941216130614066C
:100DA00005060895092E0394000C11F4882352F0CF
:100DB000BB0F40F4BF2B11F460FF04C06F5F7F4F87
:100DC0008F4F9F4F089557FD9058440F551F59F06E
:100DD0005F3F71F04795880F97FB991F61F09F3F28
:100DE00079F087950895121613061406551FF2CF51
:100DF0004695F1DF08C0161617061806991FF1CFA1
:100E000086957105610508940895E894BB276627C7
:100E10007727CB0197F908950E94970608F48FEF82
:100E200008950E9424070C94D2060E94C40638F04C
:100E30000E94CB0620F0952311F00C94BB060C9475
:100E4000C10611240C9406070E94E30670F3959FD7
:100E5000C1F3950F50E0551F629FF001729FBB27B1
:100E6000F00DB11D639FAA27F00DB11DAA1F649F4D
:100E70006627B00DA11D661F829F2227B00DA11D00
:100E8000621F739FB00DA11D621F839FA00D611D86
:100E9000221F749F3327A00D611D231F849F600DA7
:100EA000211D822F762F6A2F11249F5750409AF0D0
:100EB000F1F088234AF0EE0FFF1FBB1F661F771F5C
:100EC000881F91505040A9F79E3F510580F00C9427
:100ED000BB060C9406075F3FE4F3983ED4F3869577
:100EE00077956795B795F795E7959F5FC1F7FE2BC7
:100EF000880F911D9695879597F908950E949706FA
:100F0000880B990B089581E090E0F8940C94880781
:040F1000F894FFCF83
:100F1400000000000C017D00D100A800C3005301B3
:100F24000D0A006E616E00696E66006F766600647D
:100F340065677265652063656C636975733D000957
:0C0F440000666172656E686569743D00AE
:00000001FF
