:100000000C942A000C943F000C943F000C943F0089
:100010000C943F000C943F000C943F000C943F0064
:100020000C943F000C943F000C943F000C943F0054
:100030000C943F000C943F000C943F000C943F0044
:100040000C943F000C943F000C943F000C943F0034
:100050000C943F0011241FBECFE5D4E0DEBFCDBF1E
:1000600011E0A0E6B0E0E6E6F6E002C005900D92F1
:10007000A430B107D9F70E9441000C9431030C94CD
:100080000000DF93CF93CDB7DEB761970FB6F8943A
:10009000DEBF0FBECDBF8AE390E0FC01108284E397
:1000A00090E02FEFFC01208381E390E02FEFFC0133
:1000B00020838BE390E02FEFFC0120831A821982CA
:1000C0001C821B821E821D8218861F821A86198638
:1000D0001C861B8688E30E94B20280E80E94B2025E
:1000E0008CE00E94B20286E00E94B20281E00E948F
:1000F000B20201C0000089819A81009709F046C0D0
:1001000080E80E94B20280E690E00E940E0389E33C
:1001100090E0FC0180818D878D858E3FD1F48981AF
:100120009A810097B1F480EC0E94B20281E790E0DE
:100130000E940E0380EC0E94B20285E790E00E94CC
:100140000E0381E090E09A83898381E090E09C83B4
:100150008B838D858F37D1F489819A810097B1F493
:1001600080EC0E94B20289E790E00E940E0380ECCE
:100170000E94B20285E790E00E940E0381E090E0C9
:100180009A83898382E090E09C838B8389819A8122
:100190008130910509F048C080E80E94B2028CE7E6
:1001A00090E00E940E0389E390E0FC0180818E873D
:1001B0008E858E3FD9F489819A8181309105B1F481
:1001C00080EC0E94B20281E790E00E940E0380EC76
:1001D0000E94B20285E790E00E940E0382E090E068
:1001E0009A83898383E090E09E838D838E858F3709
:1001F000D9F489819A8181309105B1F480EC0E9413
:10020000B20289E790E00E940E0380EC0E94B202E5
:1002100085E790E00E940E0382E090E09A83898354
:1002200084E090E09E838D8389819A81823091055C
:1002300009F04BC080E80E94B2028DE890E00E9475
:100240000E0380EC0E94B20289E390E0FC01808101
:100250008F878F858E3FD9F489819A81823091056D
:10026000B1F480EC0E94B20281E790E00E940E039C
:1002700080EC0E94B20285E790E00E940E0383E0CA
:1002800090E09A83898385E090E098878F838F85BB
:100290008F37D9F489819A8182309105B1F480EC4D
:1002A0000E94B20289E790E00E940E0380EC0E9457
:1002B000B20285E790E00E940E0383E090E09A830B
:1002C000898386E090E098878F8389819A81833043
:1002D000910509F04BC080E80E94B2028DE990E0E0
:1002E0000E940E0380EC0E94B20289E390E0FC01C0
:1002F0008081888B88898E3FD9F489819A81833067
:100300009105B1F480EC0E94B20281E790E00E9476
:100310000E0380EC0E94B20285E790E00E940E037B
:1003200084E090E09A83898387E090E09A878987C8
:1003300088898F37D9F489819A8183309105B1F406
:1003400080EC0E94B20289E790E00E940E0380ECEC
:100350000E94B20285E790E00E940E0384E090E0E4
:100360009A83898388E090E09A87898789819A8136
:100370008430910509F052C080E80E94B20280EBFF
:1003800090E00E940E0380EC0E94B20289E390E0AC
:10039000FC018081898B89898E3FD9F489819A817A
:1003A00084309105B1F480EC0E94B20281E790E0C4
:1003B0000E940E0380EC0E94B20285E790E00E944A
:1003C0000E0385E090E09A83898389E090E09C8722
:1003D0008B8789898F3711F589819A8184309105BE
:1003E000E9F480EC0E94B20289E790E00E940E03DB
:1003F00080EC0E94B20285E790E00E940E0385E047
:1004000090E09A8389838AE090E09C878B8780E8DC
:100410000E94B20282EC90E00E940E0389819A81D0
:100420008530910509F066CE80E80E94B20282E034
:1004300090E00E94830285EC90E00E940E038B8185
:100440009C818130910571F480EC0E94B20288EDAC
:1004500090E00E940E0380EC0E94B20282EC90E0D9
:100460000E940E038D819E818330910571F480EC92
:100470000E94B20280EE90E00E940E0380EC0E9487
:10048000B20282EC90E00E940E038F819885853045
:10049000910571F480EC0E94B20286EE90E00E9419
:1004A0000E0380EC0E94B20282EC90E00E940E03E8
:1004B00089859A858730910571F480EC0E94B2029B
:1004C0008EEE90E00E940E0380EC0E94B20285EF57
:1004D00090E00E940E038B859C858930910571F414
:1004E00080EC0E94B2028CEF90E00E940E0380EC40
:1004F0000E94B20282EC90E00E940E0386E090E03F
:100500009A838983F8CDDF93CF9300D000D000D0B9
:10051000CDB7DEB79E838D831A82198213C01C82E9
:100520001B8205C08B819C8101969C838B838B8170
:100530009C8123E0893E9207ACF389819A810196E0
:100540009A83898329813A818D819E8182179307BD
:1005500034F726960FB6F894DEBF0FBECDBFCF910D
:10056000DF910895DF93CF930F92CDB7DEB78983E4
:1005700085E390E02981FC01208382E390E022E37F
:1005800030E0F90120812F7BFC01208382E390E0A1
:1005900022E330E0F90120812068FC01208382E021
:1005A00090E00E94830282E390E022E330E0F901D0
:1005B00020812F77FC0120830F90CF91DF91089548
:1005C000DF93CF930F92CDB7DEB7898385E390E0B9
:1005D0002981FC01208382E390E022E330E0F901ED
:1005E00020812064FC01208382E390E022E330E05C
:1005F000F90120812068FC01208382E090E00E94C4
:10060000830282E390E022E330E0F90120812F773A
:10061000FC0120830F90CF91DF910895DF93CF935A
:1006200000D0CDB7DEB79A83898310C089819A81C3
:10063000FC01208189819A8101969A838983822F86
:100640000E94E00282E090E00E94830289819A8108
:10065000FC018081882351F70F900F90CF91DF919B
:060660000895F894FFCF9D
:10066600446F20796F752077616E742070656E3FD8
:100676000079657300202020006E6F00446F20799A
:100686006F752077616E7420626F6F6B00646F20E8
:10069600796F752077616E742062616700646F20E0
:1006A600796F752077616E742070656E63696C0072
:1006B600646F20796F752077616E74207363616C47
:1006C600650020200073656C656374656420697439
:1006D600656D73206172650070656E2020202000B4
:1006E600626F6F6B200062616720202020007065BA
:1006F6006E63696C00202020202020007363616CEB
:04070600652000006A
:00000001FF
