:100000000C942A000C9434000C9434000C943400AA
:100010000C9434000C9434000C9434000C94340090
:100020000C9434000C9434000C9434000C94340080
:100030000C9434000C9434000C9434000C94340070
:100040000C9434000C9434000C9434000C94340060
:100050000C94340011241FBECFE5D4E0DEBFCDBF29
:100060000E9436000C94EB010C940000DF93CF93B8
:100070000F92CDB7DEB78AE390E020EFFC0120833A
:1000800084E390E02FEFFC01208381E390E02FEFE9
:10009000FC01208388E30E946C0180E80E946C01CF
:1000A0008CE00E946C0186E00E946C0181E00E945D
:1000B0006C0180E80E946C010E9463008983898141
:1000C0000E949A01F6CFDF93CF93CDB7DEB7279783
:1000D0000FB6F894DEBF0FBECDBF84E190E00E9462
:1000E0003D011A82198201C000008BE390E02FE7E6
:1000F000FC01208389E390E0FC0180818C838C816A
:100100008E3731F487E38B8381E090E09A83898393
:100110008C818D3731F484E38B8381E090E09A8386
:1001200089838C818B3731F481E38B8381E090E08C
:100130009A8389838C81873731F483E68B8381E0CE
:1001400090E09A8389838BE390E02FEBFC0120837E
:1001500089E390E0FC0180818D838D818E3B31F4B9
:1001600088E38B8381E090E09A8389838D818D3B46
:1001700031F485E38B8381E090E09A8389838D81DC
:100180008B3B31F482E38B8381E090E09A83898317
:100190008D81873B31F480E38B8381E090E09A830B
:1001A00089838BE390E02FEEFC01208389E390E0CC
:1001B000FC0180818E838E818E3E31F489E38B83B6
:1001C00081E090E09A8389838E818D3E31F486E3CD
:1001D0008B8381E090E09A8389838E818B3E31F41A
:1001E00083E38B8381E090E09A8389838E81873ECD
:1001F00031F48DE38B8381E090E09A8389838BE3F4
:1002000090E02FEDFC01208389E390E0FC018081E8
:100210008F838F818E3D31F48FE28B8381E090E07C
:100220009A8389838F818D3D31F48AE28B8381E0CB
:1002300090E09A8389838F818B3D31F48DE28B83AB
:1002400081E090E09A8389838F81873D31F48BE24E
:100250008B8381E090E09A83898389819A818130C0
:10026000910509F041CF8B8127960FB6F894DEBF38
:100270000FBECDBFCF91DF910895DF93CF9300D014
:1002800000D000D0CDB7DEB79E838D831A8219824D
:1002900013C01C821B8205C08B819C8101969C83AC
:1002A0008B838B819C8123E0893E9207ACF389810B
:1002B0009A8101969A83898329813A818D819E81D1
:1002C0008217930734F726960FB6F894DEBF0FBE59
:1002D000CDBFCF91DF910895DF93CF930F92CDB72C
:1002E000DEB7898385E390E02981FC01208382E3E6
:1002F00090E022E330E0F90120812F7BFC01208394
:1003000082E390E022E330E0F90120812068FC01E3
:10031000208382E090E00E943D0182E390E022E3AE
:1003200030E0F90120812F77FC0120830F90CF91DD
:10033000DF910895DF93CF930F92CDB7DEB7898316
:1003400085E390E02981FC01208382E390E022E3B1
:1003500030E0F90120812064FC01208382E390E0F9
:1003600022E330E0F90120812068FC01208382E053
:1003700090E00E943D0182E390E022E330E0F90149
:1003800020812F77FC0120830F90CF91DF9108957A
:10039000DF93CF9300D0CDB7DEB79A83898310C0A7
:1003A00089819A81FC01208189819A8101969A83B1
:1003B0008983822F0E949A0182E090E00E943D0191
:1003C00089819A81FC018081882351F70F900F90D9
:0A03D000CF91DF910895F894FFCF5C
:00000001FF
