:100000000C942A000C9434000C9434000C943400AA
:100010000C9434000C9434000C9434000C94340090
:100020000C9434000C9434000C9434000C94340080
:100030000C9434000C9434000C9434000C94340070
:100040000C9434000C9434000C9434000C94340060
:100050000C94340011241FBECFE5D4E0DEBFCDBF29
:100060000E9436000C9465000C940000DF93CF933F
:100070000F92CDB7DEB78AE390E0FC01108287E3F0
:1000800090E02FEFFC0120838BE390E02FEFFC0149
:10009000208389E390E0FC018081898389818F3FFF
:1000A00031F488E390E022E0FC012083F2CF8981E3
:1000B0008E3731F488E390E020E8FC012083E9CF1B
:0E00C00088E390E0FC011082E4CFF894FFCFBB
:00000001FF
