:100000000C9453000C947B000C947B000C947B00AC
:100010000C947B000C947B000C947B000C947B0074
:100020000C947B000C947B000C947B000C947B0064
:100030000C947B000C947B000C947B000C947B0054
:100040000C945D020C947B000C941D020C94F7013F
:100050000C947B000C947B000C947B000C947B0034
:100060000C947B000C947B0000000000250028000D
:100070002B0000000000240027002A0004040404D0
:100080000404040402020202020203030303030342
:10009000010204081020408001020408102001021F
:1000A00004081020A20311241FBECFEFD8E0DEBF4A
:1000B000CDBF11E0A0E0B1E0ECE4F8E002C00590B3
:1000C0000D92A431B107D9F722E0A4E1B1E001C05B
:1000D0001D92AA3CB207E1F710E0C3E5D0E004C0EE
:1000E0002197FE010E941904C235D107C9F70E9469
:1000F000A7020C9424040C940000CF92DF92EF929C
:10010000FF920F931F93CF93DF936C017A018B01C2
:10011000C0E0D0E0CE15DF0589F0D8016D918D01EA
:10012000D601ED91FC910190F081E02DC601099579
:10013000892B11F47E0102C02196ECCFC701DF911B
:10014000CF911F910F91FF90EF90DF90CF90089586
:10015000FC01918D828D981799F0828DDF01A80F97
:10016000B11D5D968C91228D2F5F91E0283C08F4A3
:1001700090E038E3939F200D1124228F90E00895A2
:100180008FEF9FEF0895FC01918D828D981731F0CC
:10019000828DE80FF11D858D90E008958FEF9FEF20
:1001A0000895FC01918D228D892F90E088539F4FF7
:1001B000821B910968EC70E00E94CF0308958DE1E5
:1001C00091E00E94D10021E0892B09F420E0822FE8
:1001D0000895FC01848DDF01A80FB11DAB51BF4F05
:1001E0002C91848D90E0019668EC70E00E94E3030E
:1001F000848FA689B7892C93A089B1898C9180645A
:100200008C93938D848D981306C00288F389E02D1A
:1002100080818F7D80830895FF920F931F93CF93EA
:10022000DF93EC0181E0888F9B8D8C8D981305C046
:10023000E889F989808185FD26C0162F8B8D90E095
:10024000019668EC70E00E94E303082FF82E8C8D75
:10025000F8120CC00FB607FCFACFE889F989808143
:1002600085FFF5CFCE010E94E900F1CF8B8DFE0115
:10027000E80FF11DEB51FF4F10830B8FEA89FB89CB
:100280008081806207C0EE89FF896083E889F989EF
:1002900080818064808381E090E0DF91CF911F9125
:1002A0000F91FF900895CF93DF93EC01888D882301
:1002B000C9F0EA89FB89808185FD05C0A889B989D3
:1002C0008C9186FD0FC00FB607FCF5CF808185FFAE
:1002D000F2CFA889B9898C9185FFEDCFCE010E941C
:1002E000E900E7CFDF91CF91089580E090E0892B7E
:1002F00029F00E94DF0081110C94000008953FB79F
:10030000F8948091190190911A01A0911B01B0916C
:100310001C0126B5A89B05C02F3F19F00196A11D11
:10032000B11D3FBFBA2FA92F982F8827820F911D8B
:10033000A11DB11DBC01CD0142E0660F771F881FD2
:10034000991F4A95D1F708958F929F92AF92BF92CD
:100350000F931F93CF93DF93CDB7DEB7A1970FB65F
:10036000F894DEBF0FBECDBF19A2423008F44AE0B8
:100370008E010F5D1F4F842E912CA12CB12CA50155
:1003800094010E94F703E62FB901CA010150110937
:10039000EA3014F4E05D01C0E95CD801EC93232B52
:1003A000242B252B61F70115110571F0F80101903F
:1003B0000020E9F73197AF01401B510BB8018DE1E7
:1003C00091E00E947D0002C080E090E0A1960FB60F
:1003D000F894DEBF0FBECDBFDF91CF911F910F917B
:1003E000BF90AF909F908F9008950E941F041F921E
:1003F0000F920FB60F9211242F933F934F935F9359
:100400006F937F938F939F93AF93BF93EF93FF93DC
:100410008DE191E00E94E900FF91EF91BF91AF91D2
:100420009F918F917F916F915F914F913F912F910C
:100430000F900FBE0F901F9018951F920F920FB63E
:100440000F9211242F935F936F937F938F939F93BA
:10045000AF93BF93EF93FF93E0912D01F0912E01A5
:100460008081E0913301F091340182FD16C020813A
:100470008091360190E0019668EC70E00E94CF0315
:1004800090913701981751F0E0913601F0E0E35E6A
:10049000FE4F258F8093360101C08081FF91EF913F
:1004A000BF91AF919F918F917F916F915F912F91AC
:1004B0000F900FBE0F901F9018951F920F920FB6BE
:1004C0000F9211242F933F938F939F93AF93BF93DA
:1004D0008091150190911601A0911701B09118011A
:1004E0003091140123E0230F2D3720F40196A11D34
:1004F000B11D05C026E8230F0296A11DB11D209352
:1005000014018093150190931601A0931701B093E5
:1005100018018091190190911A01A0911B01B091CD
:100520001C010196A11DB11D8093190190931A0120
:10053000A0931B01B0931C01BF91AF919F918F912C
:100540003F912F910F900FBE0F901F9018957894A8
:1005500084B5826084BD84B5816084BD85B58260C8
:1005600085BD85B5816085BD80916E008160809379
:100570006E001092810080918100826080938100E2
:1005800080918100816080938100809180008160F2
:10059000809380008091B10084608093B10080914D
:1005A000B00081608093B00080917A008460809375
:1005B0007A0080917A00826080937A0080917A003C
:1005C000816080937A0080917A00806880937A00BD
:1005D0001092C100E0912D01F0912E0182E0808304
:1005E000E0912901F0912A011082E0912B01F09114
:1005F0002C018FEC808310923501E0913101F09154
:10060000320186E08083E0912F01F09130018081FA
:1006100080618083E0912F01F091300180818860BA
:100620008083E0912F01F091300180818068808388
:10063000E0912F01F091300180818F7D8083EFE97F
:10064000F0E02491EBE8F0E084918823C1F090E0A1
:10065000880F991FFC01EE58FF4FC591D491FC0102
:10066000E859FF4FA591B4919FB7F8948881E22F84
:10067000E0958E2388838C91E823EC939FBFC1E49F
:10068000C0937C0080917A00806480937A0080918E
:100690007A0086FDFCCF809178002091790090E06F
:1006A000922B6C01092E000CEE08FF0897FF14C076
:1006B000E0911D01F0911E010190F081E02D6DE2AD
:1006C0008DE191E0099566277727CB016C197D09AB
:1006D0008E099F094AE003C04AE0C701B6010E94A3
:1006E000A40142E050E060E171E08DE191E00E9400
:1006F0007D000E947F014B015C0184E6C82ED12C55
:10070000E12CF12C0E947F01DC01CB0188199909B1
:10071000AA09BB09883E9340A105B10558F021E024
:10072000C21AD108E108F10888EE880E83E0981E0D
:10073000A11CB11CC114D104E104F10419F70E94F9
:1007400075019ECFEDE1F1E01382128288EE93E015
:10075000A0E0B0E084839583A683B78384E091E032
:100760009183808385EC90E09587848784EC90E08A
:100770009787868780EC90E0918B808B81EC90E06E
:10078000938B828B82EC90E0958B848B86EC90E04F
:10079000978B868B118E128E138E148E0895AA1B42
:1007A000BB1B51E107C0AA1FBB1FA617B70710F05C
:1007B000A61BB70B881F991F5A95A9F7809590958E
:1007C000BC01CD01089597FB072E16F4009407D0C5
:1007D00077FD09D00E94CF0307FC05D03EF4909529
:1007E00081959F4F0895709561957F4F0895A1E27F
:1007F0001A2EAA1BBB1BFD010DC0AA1FBB1FEE1F9B
:10080000FF1FA217B307E407F50720F0A21BB30BE5
:10081000E40BF50B661F771F881F991F1A9469F761
:1008200060957095809590959B01AC01BD01CF01BD
:100830000895EE0FFF1F0590F491E02D099481E0DB
:0C08400090E0F8940C942404F894FFCF8E
:10084C00000000000C017D00D100A800C300530182
:04085C000D0A000081
:00000001FF
