:100000000C942A000C9447000C9447000C94470071
:100010000C9447000C9447000C9447000C94470044
:100020000C9447000C9447000C9447000C94470034
:100030000C9447000C9447000C9447000C94470024
:100040000C9447000C9447000C9447000C94470014
:100050000C94470011241FBECFE5D4E0DEBFCDBF16
:1000600010E0A0E6B0E0E6EFF5E002C005900D92EA
:10007000A638B107D9F710E0A6E8B0E001C01D929C
:10008000A339B107E1F70E9449000C94F9020C94DE
:100090000000DF93CF93CDB7DEB784E390E02FEF7E
:1000A000FC01208381E390E02FEFFC01208388E3B3
:1000B0000E94620286E00E9462028CE00E9462025C
:1000C00080E80E94620281E00E94620282E390E086
:1000D0000E94BE0286E290E027E8FC01208301C076
:1000E00000000E9431010E948B010E94E5018AEC10
:1000F0000E94620280918600805D0E949002809141
:100100008700805D0E94900280918800805D0E943F
:10011000900280918900805D0E94900280918B0006
:10012000893CD0F0809186008823B1F480918700CB
:10013000882391F480918800882371F4809189004C
:10014000882351F481E08093860080EC0E94620253
:1001500080E690E00E943F0280918B00883C10F482
:100160001092860080918D00893C90F080918600ED
:10017000813071F480918800882351F481E080936C
:10018000880080EC0E9462028AE690E00E943F02B2
:1001900080918D00893C78F080918C00893C58F0EA
:1001A00080918600882339F480918900882319F48E
:1001B00081E08093870080918D00883C10F410923C
:1001C000870080918C00893C78F080918600813096
:1001D00059F480918800813039F480EC0E946202E9
:1001E00081E790E00E943F0280918C00893CC8F03A
:1001F00080918D00893CA8F080918600882389F445
:1002000080918700882369F481E08093890081E0F0
:100210008093870080EC0E9462028CE790E00E944D
:100220003F0280918B00893C90F080918C00893C4A
:1002300070F080918800882351F481E080938800D9
:1002400080EC0E9462028CE790E00E943F02809165
:100250008C00883C08F044CF1092880010928900EE
:1002600040CFDF93CF93CDB7DEB787E290E021E6B2
:10027000FC01208380E80E94620286E290E026E290
:1002800030E0F90120812064FC012083000086E237
:1002900090E0FC018081882F90E080719070009741
:1002A000B1F385E290E0FC01808180938B00809126
:1002B0008B009AE0692F0E94ED02892F80939200B3
:1002C00080918B009AE0692F0E94ED02809390004C
:1002D000809190009AE0692F0E94ED02892F80930F
:1002E0009100809190009AE0692F0E94ED02809326
:1002F0008E0080918E00805D0E949002809191001E
:10030000805D0E94900280919200805D0E94900228
:10031000CF91DF910895DF93CF93CDB7DEB787E21A
:1003200090E022E6FC01208386E80E94620286E2D9
:1003300090E026E230E0F90120812064FC01208376
:10034000000086E290E0FC018081882F90E08071BF
:1003500090700097B1F385E290E0FC01808180937A
:100360008D0080918D009AE0692F0E94ED02892F07
:100370008093920080918D009AE0692F0E94ED0297
:1003800080939000809190009AE0692F0E94ED0286
:10039000892F80939100809190009AE0692F0E94AC
:1003A000ED0280938E0080918E00805D0E9490020D
:1003B00080919100805D0E94900280919200805D0A
:1003C0000E949002CF91DF910895DF93CF93CDB734
:1003D000DEB787E290E027E6FC0120838BE80E94ED
:1003E000620286E290E026E230E0F901208120649A
:1003F000FC012083000086E290E0FC018081882FD0
:1004000090E0807190700097B1F385E290E0FC017C
:10041000808180938C0080918C009AE0692F0E94EB
:10042000ED02892F8093920080918C009AE0692FD1
:100430000E94ED0280939000809190009AE0692FD5
:100440000E94ED02892F80939100809190009AE0A4
:10045000692F0E94ED0280938E0080918E00805D56
:100460000E94900280919100805D0E949002809194
:100470009200805D0E949002CF91DF910895DF93FA
:10048000CF9300D0CDB7DEB79A83898310C089811E
:100490009A81FC01208189819A8101969A838983BE
:1004A000822F0E94900282E090E00E94BE02898129
:1004B0009A81FC018081882351F70F900F90CF9192
:1004C000DF910895DF93CF930F92CDB7DEB7898385
:1004D00085E390E02981FC01208382E390E022E320
:1004E00030E0F90120812F7BFC01208382E390E042
:1004F00022E330E0F90120812068FC01208382E0C2
:1005000090E00E94BE0282E390E022E330E0F90135
:1005100020812F77FC0120830F90CF91DF910895E8
:10052000DF93CF930F92CDB7DEB7898385E390E059
:100530002981FC01208382E390E022E330E0F9018D
:1005400020812064FC01208382E390E022E330E0FC
:10055000F90120812068FC01208382E090E00E9464
:10056000BE0282E390E022E330E0F90120812F77A0
:10057000FC0120830F90CF91DF910895DF93CF93FB
:1005800000D000D000D0CDB7DEB79E838D831A8215
:10059000198213C01C821B8205C08B819C8101962D
:1005A0009C838B838B819C8123E0883E9207ACF3F4
:1005B00089819A8101969A83898329813A818D81E3
:1005C0009E812817390734F326960FB6F894DEBFBC
:1005D0000FBECDBFCF91DF910895991B79E004C084
:1005E000991F961708F0961B881F7A95C9F7809572
:0605F0000895F894FFCF0E
:1005F600666972737420202020007365636F6E64D1
:10060600003372642020202020202000202020207B
:060616002020202020003E
:00000001FF
