:100000000C942A000C943F000C943F000C943F0089
:100010000C943F000C943F000C943F000C943F0064
:100020000C943F000C943F000C943F000C943F0054
:100030000C943F000C943F000C943F000C943F0044
:100040000C943F000C943F000C943F000C943F0034
:100050000C943F0011241FBECFE5D4E0DEBFCDBF1E
:1000600010E0A0E6B0E0E8E0F2E002C005900D92FA
:10007000A836B107D9F70E9441000C9402010C94F4
:100080000000DF93CF93CDB7DEB784E390E02FEF8E
:10009000FC01208381E390E02FEFFC01208388E3C3
:1000A0000E946C0080E80E946C008CE00E946C0052
:1000B00086E00E946C0081E00E946C0080E80E9453
:1000C0006C0081E60E948E0080EC0E946C0080E64D
:1000D00090E00E94B000F2CFDF93CF930F92CDB7A4
:1000E000DEB7898385E390E02981FC01208382E3E8
:1000F00090E02FEBFC01208382E390E020E8FC01FC
:10010000208382E090E00E94D30082E390E02FE71A
:10011000FC0120830F90CF91DF910895DF93CF935F
:100120000F92CDB7DEB7898385E390E02981FC018A
:10013000208382E390E020E4FC01208382E390E0CE
:1001400020E8FC01208382E090E00E94D30082E35B
:1001500090E02FE7FC0120830F90CF91DF9108956D
:10016000DF93CF9300D0CDB7DEB79A83898310C0D9
:1001700089819A81FC01208189819A8101969A83E3
:100180008983822F0E948E0082E090E00E94D3003B
:1001900089819A81FC018081882351F70F900F900B
:1001A000CF91DF910895DF93CF9300D000D000D09E
:1001B000CDB7DEB79E838D831A82198213C01C824D
:1001C0001B8205C08B819C8101969C838B838B81D4
:1001D0009C8123E0893E9207ACF389819A81019644
:1001E0009A83898329813A818D819E818217930721
:1001F00034F726960FB6F894DEBF0FBECDBFCF9171
:08020000DF910895F894FFCF8F
:080208007372656E61746800F9
:00000001FF
