:100000000C945D000C9485000C9485000C94850084
:100010000C9485000C9485000C9485000C9485004C
:100020000C9485000C9485000C9485000C9485003C
:100030000C9485000C9485000C9485000C9485002C
:100040000C941C030C9485000C94DC020C94B602F6
:100050000C9485000C9485000C9485000C9485000C
:100060000C9485000C9485000000000024002700FB
:100070002A0000000000250028002B0004040404CE
:100080000404040402020202020203030303030342
:10009000010204081020408001020408102001021F
:1000A00004081020000000080002010000030407FB
:1000B0000000000000000000210511241FBECFEF4A
:1000C000D8E0DEBFCDBF11E0A0E0B1E0E8EDFFE099
:1000D00002C005900D92A032B107D9F722E0A0E24C
:1000E000B1E001C01D92AC3DB207E1F710E0CDE5F3
:1000F000D0E004C02197FE010E949805CC35D107BD
:10010000C9F70E9466030C94EA070C9400002FB70D
:10011000F8948091270190912801A0912901B09134
:100120002A012FBF8093330190933401A0933501AE
:10013000B0933601E0912B01F0912C010680F781FC
:10014000E02D8BE291E0099597FF26C02FB7F89438
:100150008091270190912801A0912901B0912A0155
:100160002FBF40913301509134016091350170915E
:100170003601841B950BA60BB70B40912F015091B4
:100180003001609131017091320184179507A60703
:10019000B70780F28FEF9FEF0895EDEAF0E024912A
:1001A000E9E9F0E09491E5E8F0E0E491EE2309F468
:1001B0003BC0222339F1233091F038F42130A9F0EB
:1001C000223001F524B52F7D12C0273091F0283060
:1001D000A1F02430B9F4209180002F7D03C020913C
:1001E00080002F77209380000DC024B52F7724BD89
:1001F00009C02091B0002F7703C02091B0002F7D5F
:100200002093B000F0E0EE0FFF1FEE58FF4FA591D6
:10021000B4912FB7F894EC91811103C090959E236F
:1002200001C09E2B9C932FBF0895CF92DF92EF9237
:10023000FF920F931F93CF93DF936C017A018B0191
:10024000C0E0D0E0CE15DF0589F0D8016D918D01B9
:10025000D601ED91FC910190F081E02DC601099548
:10026000892B11F47E0102C02196ECCFC701DF91EA
:10027000CF911F910F91FF90EF90DF90CF90089555
:10028000FC01918D828D981799F0828DDF01A80F66
:10029000B11D5D968C91228D2F5F91E0283C08F472
:1002A00090E038E3939F200D1124228F90E0089571
:1002B0008FEF9FEF0895FC01918D828D981731F09B
:1002C000828DE80FF11D858D90E008958FEF9FEFEF
:1002D0000895FC01918D228D892F90E088539F4FC6
:1002E000821B910968EC70E00E944E0508958BE234
:1002F00091E00E94690121E0892B09F420E0822F1E
:100300000895FC01848DDF01A80FB11DAB51BF4FD3
:100310002C91848D90E0019668EC70E00E9462055B
:10032000848FA689B7892C93A089B1898C91806428
:100330008C93938D848D981306C00288F389E02DE9
:1003400080818F7D80830895FF920F931F93CF93B9
:10035000DF93EC0181E0888F9B8D8C8D981305C015
:10036000E889F989808185FD26C0162F8B8D90E064
:10037000019668EC70E00E946205082FF82E8C8DC3
:10038000F8120CC00FB607FCFACFE889F989808112
:1003900085FFF5CFCE010E948101F1CF8B8DFE014B
:1003A000E80FF11DEB51FF4F10830B8FEA89FB899A
:1003B0008081806207C0EE89FF896083E889F989BE
:1003C00080818064808381E090E0DF91CF911F91F4
:1003D0000F91FF900895CF93DF93EC01888D8823D0
:1003E000C9F0EA89FB89808185FD05C0A889B989A2
:1003F0008C9186FD0FC00FB607FCF5CF808185FF7D
:10040000F2CFA889B9898C9185FFEDCFCE010E94EA
:100410008101E7CFDF91CF91089580E090E0892BB3
:1004200029F00E94770181110C94000008953FB7D4
:10043000F8948091210190912201A0912301B09123
:10044000240126B5A89B05C02F3F19F00196A11DD8
:10045000B11D3FBFBA2FA92F982F8827820F911D5A
:10046000A11DB11DBC01CD0142E0660F771F881FA1
:10047000991F4A95D1F708958F929F92AF92BF929C
:100480000F931F93CF93DF93CDB7DEB7A1970FB62E
:10049000F894DEBF0FBECDBF19A2423008F44AE087
:1004A0008E010F5D1F4F842E912CA12CB12CA50124
:1004B00094010E947605E62FB901CA010150110985
:1004C000EA3014F4E05D01C0E95CD801EC93232B21
:1004D000242B252B61F70115110571F0F80101900E
:1004E0000020E9F73197AF01401B510BB8018BE2B7
:1004F00091E00E94150102C080E090E0A1960FB645
:10050000F894DEBF0FBECDBFDF91CF911F910F9149
:10051000BF90AF909F908F9008950E9495070F9382
:100520001F93CF93DF93EC0188819981009729F085
:100530002A813B812617370788F48B016F5F7F4F35
:100540000E94CB06009761F0998388831B830A83FE
:100550002C813D81232B11F4FC01108281E001C02C
:1005600080E0DF91CF911F910F9108951F920F921C
:100570000FB60F9211242F933F934F935F936F9376
:100580007F938F939F93AF93BF93EF93FF938BE2F0
:1005900091E00E948101FF91EF91BF91AF919F91F6
:1005A0008F917F916F915F914F913F912F910F901C
:1005B0000FBE0F901F9018951F920F920FB60F92BB
:1005C00011242F935F936F937F938F939F93AF9398
:1005D000BF93EF93FF93E0913B01F0913C01808149
:1005E000E0914101F091420182FD16C0208180918D
:1005F000440190E0019668EC70E00E944E059091F5
:100600004501981751F0E0914401F0E0E55DFE4F9F
:10061000258F8093440101C08081FF91EF91BF91AC
:10062000AF919F918F917F916F915F912F910F90DB
:100630000FBE0F901F9018951F920F920FB60F923A
:1006400011242F933F938F939F93AF93BF938091E8
:10065000270190912801A0912901B0912A013091A0
:10066000200123E0230F2D3720F40196A11DB11D99
:1006700005C026E8230F0296A11DB11D209320017D
:100680008093270190932801A0932901B0932A0118
:100690008091210190912201A0912301B091240128
:1006A0000196A11DB11D8093210190932201A09379
:1006B0002301B0932401BF91AF919F918F913F91FE
:1006C0002F910F900FBE0F901F901895CF93DF932F
:1006D000CDB7DEB728970FB6F894DEBF0FBECDBFFB
:1006E000789484B5826084BD84B5816084BD85B50D
:1006F000826085BD85B5816085BD80916E00816019
:1007000080936E00109281008091810082608093BE
:1007100081008091810081608093810080918000C0
:100720008160809380008091B10084608093B100EB
:100730008091B00081608093B00080917A008460E5
:1007400080937A0080917A00826080937A00809111
:100750007A00816080937A0080917A00806880932B
:100760007A001092C100E0913B01F0913C0182E0DF
:100770008083E0913701F09138011082E0913901D6
:10078000F0913A018FEC808310924301E0913F0198
:10079000F091400186E08083E0913D01F0913E01BF
:1007A000808180618083E0913D01F0913E018081F4
:1007B00088608083E0913D01F0913E0180818068F6
:1007C0008083E0913D01F0913E0180818F7D8083A7
:1007D000EFE9F0E02491EBE8F0E084918823C9F0A0
:1007E00090E0880F991FFC01E859FF4F4591549103
:1007F000FC01EE58FF4FA591B4919FB7F894FA0110
:1008000080812095822380838C91E22FE823EC93D2
:100810009FBFE9E9F0E02491E5E8F0E084918823C6
:1008200099F090E0880F991FFC01E859FF4FA591BE
:10083000B491FC01EE58FF4F859194918FB7F894D5
:10084000EC91E22BEC938FBF91E4992EAA24A39410
:10085000B12C90927C0080917A00806480937A0021
:1008600080917A0086FDFCCF00917800809179001C
:1008700010E0182B6801012E000CEE08FF0817FF8E
:1008800014C0E0912B01F0912C010190F081E02D3A
:100890006DE28BE291E0099566277727CB016C1911
:1008A0007D098E099F094AE003C04AE0C701B601ED
:1008B0000E943C0242E050E066E171E08BE291E090
:1008C0000E9415010E9417022B013C0184E6C82EEC
:1008D000D12CE12CF12C0E941702DC01CB018419F0
:1008E0009509A609B709883E9340A105B10558F0BE
:1008F000F1E0CF1AD108E108F10828EE420E23E01A
:10090000521E611C711CC114D104E104F10419F7D9
:100910000436110574F48091250190912601892BEC
:1009200091F481E00E94CD00B0922601A0922501B1
:100930000AC00436110539F080E00E94CD00109203
:100940002601109225018BE291E00E9469011816A0
:1009500019060CF073C01A8219821C821B821E8237
:100960001D8260E070E0CE0101960E948F02298115
:100970003A8181110DC02115310519F0C9010E947C
:1009800033061A8219821E821D821C821B8220C09D
:100990001E821D8268E171E0C9010E94AC0718C087
:1009A0008F8318860F5F1F4FB801CE0101960E94FA
:1009B0008F02882369F029813A818D819E81BE0151
:1009C000695F7F4F820F931F0E94AC071E830D83C8
:1009D0000E9487000D811E8197FFE2CF012B51F10C
:1009E00009811A8169E171E0C8010E94A307892B7E
:1009F00081F48091250190912601019751F480E0C6
:100A00000E94CD0082E090E0909326018093250122
:100A100011C06DE171E0C8010E94A307892B51F458
:100A20008091250190912601029721F410922601D0
:100A30001092250189819A810E9433060E940D023D
:100A400008CFEBE2F1E01382128288EE93E0A0E09F
:100A5000B0E084839583A683B7838AE091E0918395
:100A6000808385EC90E09587848784EC90E097877D
:100A7000868780EC90E0918B808B81EC90E0938B6B
:100A8000828B82EC90E0958B848B86EC90E0978B48
:100A9000868B118E128E138E148E0895AA1BBB1B8B
:100AA00051E107C0AA1FBB1FA617B70710F0A61B6E
:100AB000B70B881F991F5A95A9F780959095BC018F
:100AC000CD01089597FB072E16F4009407D077FD0B
:100AD00009D00E944E0507FC05D03EF49095819503
:100AE0009F4F0895709561957F4F0895A1E21A2E4A
:100AF000AA1BBB1BFD010DC0AA1FBB1FEE1FFF1FC2
:100B0000A217B307E407F50720F0A21BB30BE40B11
:100B1000F50B661F771F881F991F1A9469F7609558
:100B20007095809590959B01AC01BD01CF01089512
:100B3000EE0FFF1F0590F491E02D0994CF93DF9302
:100B40008230910510F482E090E0E091DA02F091B9
:100B5000DB0220E030E0C0E0D0E0309711F14081CE
:100B6000518148175907C0F04817590761F482812D
:100B70009381209719F09B838A832BC09093DB028B
:100B80008093DA0226C02115310519F04217530768
:100B900018F49A01BE01DF01EF010280F381E02D1C
:100BA000DCCF2115310509F1281B390B2430310523
:100BB00090F412968D919C9113976115710521F017
:100BC000FB019383828304C09093DB028093DA025B
:100BD000FD01329644C0FD01E20FF31F8193919312
:100BE000225031092D933C933AC02091D802309184
:100BF000D902232B41F4209102013091030130935B
:100C0000D9022093D80220910001309101012115D1
:100C1000310541F42DB73EB74091040150910501D3
:100C2000241B350BE091D802F091D902E217F307AB
:100C3000A0F42E1B3F0B2817390778F0AC014E5F4C
:100C40005F4F2417350748F04E0F5F1F5093D902AE
:100C50004093D8028193919302C0E0E0F0E0CF018D
:100C6000DF91CF9108950F931F93CF93DF93009758
:100C700009F48CC0FC013297138212820091DA02CF
:100C80001091DB020115110581F420813181820F61
:100C9000931F2091D8023091D9022817390779F58E
:100CA000F093D902E093D80271C0D80140E050E03F
:100CB000AE17BF0750F412962D913C911397AD01DA
:100CC0002115310509F1D901F3CF9D01DA013383F3
:100CD000228360817181860F971F8217930769F4C1
:100CE000EC0128813981260F371F2E5F3F4F31835A
:100CF00020838A819B8193838283452B29F4F093FF
:100D0000DB02E093DA0242C01396FC93EE93129753
:100D1000ED01499159919E01240F351FE217F30708
:100D200071F480819181840F951F029611969C9396
:100D30008E938281938113969C938E931297E0E019
:100D4000F0E0D80112968D919C911397009719F0BD
:100D5000F8018C01F6CF8D919C9198012E5F3F4F49
:100D6000820F931F2091D8023091D902281739079A
:100D700069F4309729F41092DB021092DA0202C073
:100D8000138212821093D9020093D802DF91CF917F
:100D90001F910F910895A0E0B0E0E1EDF6E00C9412
:100DA000B707EC01009721F4CB010E949E05B8C063
:100DB000FC01E60FF71F9C0122503109E217F307EF
:100DC00008F4ACC0D9010D911C91119706171707B3
:100DD000B0F00530110508F49FC0C80104978617CC
:100DE000970708F499C002501109061B170B0193CD
:100DF00011936D937C93CF010E9433068DC05B01EC
:100E0000A01AB10A4C01800E911EA091DA02B09195
:100E1000DB0240E050E0E12CF12C109709F44AC0CD
:100E2000A815B905D1F56D907C901197630182E00A
:100E3000C80ED11CCA14DB0480F1A3014A195B0956
:100E40006A0182E0C80ED11C1296BC9012971396CC
:100E5000AC91B5E0CB16D10440F0B282A3835183AC
:100E60004083D9016D937C930AC00E5F1F4FC3016D
:100E7000800F911FF90191838083EB2DFA2FE114EC
:100E8000F10431F0D7011396FC93EE93129744C00E
:100E9000F093DB02E093DA023FC08D919C911197B1
:100EA0004817590708F4AC017D0112960D90BC91CA
:100EB000A02DB3CF8091D8029091D90288159905C1
:100EC000E1F446175707C8F48091000190910101A1
:100ED000009741F48DB79EB74091040150910501F0
:100EE000841B950BE817F907C8F4F093D902E09337
:100EF000D802F901718360830FC0CB010E949E0567
:100F00007C01009759F0A801BE010E949A07CE010A
:100F10000E943306C70104C0CE0102C080E090E009
:100F2000CDB7DEB7EEE00C94D30781E090E0F89403
:100F30000C94EA07FB01DC0102C001900D924150C4
:100F40005040D8F70895FB01DC018D910190801984
:100F50000110D9F3990B0895FB01DC0101900D926A
:100F60000020E1F708952F923F924F925F926F9287
:100F70007F928F929F92AF92BF92CF92DF92EF9229
:100F8000FF920F931F93CF93DF93CDB7DEB7CA1BAA
:100F9000DB0B0FB6F894DEBF0FBECDBF09942A88D5
:100FA000398848885F846E847D848C849B84AA847D
:100FB000B984C884DF80EE80FD800C811B81AA810A
:100FC000B981CE0FD11D0FB6F894DEBF0FBECDBFD5
:080FD000ED010895F894FFCF34
:100FD8000000DC02800000000000A4011501690186
:100FE80040015B01EB010D0A006F6666006F6E0041
:00000001FF
