:100000000C942A000C9447000C9447000C94470071
:100010000C9447000C9447000C9447000C94470044
:100020000C9447000C9447000C9447000C94470034
:100030000C9447000C9447000C9447000C94470024
:100040000C9447000C9447000C9447000C94470014
:100050000C94470011241FBECFE5D4E0DEBFCDBF16
:1000600010E0A0E6B0E0EEEAF5E002C005900D92E7
:10007000A237B107D9F710E0A2E7B0E001C01D92A6
:10008000A138B107E1F70E9449000C94D5020C9405
:100090000000DF93CF93CDB7DEB784E390E02FEF7E
:1000A000FC01208381E390E02FEFFC01208388E3B3
:1000B0000E943E0286E00E943E028CE00E943E02C8
:1000C00080E80E943E0281E00E943E0282E390E0CE
:1000D0000E949A0286E290E027E8FC01208303C098
:1000E000000001C000000E940A010E9467010E94F6
:1000F000C10180917800893C78F08091720088235A
:1001000059F480917300882339F480917500882315
:1001100019F481E08093720080917800883C20F48B
:10012000109272001092750080917A00893C58F00C
:1001300080917200813039F480917300882319F422
:1001400081E08093730080917A00883C20F41092C3
:1001500073001092750080917900893CB0F0809115
:100160007200813091F480917300813071F480913C
:100170007400882351F481E08093740080EC0E9425
:100180003E0280E690E00E941B0280917A00893C4A
:1001900090F080917800883C70F410927300109277
:1001A000720081E08093750080EC0E943E0289E637
:1001B00090E00E941B0280917900893C90F0809130
:1001C0007800883C70F4109273001092720081E005
:1001D0008093750080EC0E943E0289E690E00E94C8
:1001E0001B0280917900893C08F47ACF80917A00D3
:1001F000883C08F077CF109273001092720081E073
:100200008093750080EC0E943E0289E690E00E9497
:100210001B0269CFDF93CF93CDB7DEB787E290E0C3
:1002200021E6FC01208380E80E943E0286E290E005
:1002300026E230E0F90120812064FC0120830000E7
:1002400086E290E0FC018081882F90E080719070C0
:100250000097B1F385E290E0FC0180818093780003
:10026000809178009AE0692F0E94C902892F8093BB
:100270008000809178009AE0692F0E94C9028093E3
:100280007D0080917D009AE0692F0E94C902892F2C
:1002900080937F0080917D009AE0692F0E94C902BF
:1002A00080937B0080E80E943E0280917B00805D0D
:1002B0000E946C0280917F00805D0E946C028091A0
:1002C0008000805D0E946C02CF91DF910895DF93E2
:1002D000CF93CDB7DEB787E290E022E6FC01208322
:1002E00086E290E026E230E0F90120812064FC0102
:1002F0002083000086E290E0FC018081882F90E05E
:10030000807190700097B1F385E290E0FC018081EC
:1003100080937A0080917A009AE0692F0E94C90246
:10032000892F8093800080917A009AE0692F0E9443
:10033000C90280937D0080917D009AE0692F0E9420
:10034000C902892F80937F0080917D009AE0692FF8
:100350000E94C90280937B0084E80E943E02809143
:100360007B00805D0E946C0280917F00805D0E9416
:100370006C0280918000805D0E946C02CF91DF91C1
:100380000895DF93CF93CDB7DEB787E290E024E600
:10039000FC01208388E80E943E0286E290E026E28B
:1003A00030E0F90120812064FC012083000086E216
:1003B00090E0FC018081882F90E080719070009720
:1003C000B1F385E290E0FC01808180937900809117
:1003D00079009AE0692F0E94C902892F80938000DA
:1003E000809179009AE0692F0E94C90280937D0074
:1003F00080917D009AE0692F0E94C902892F809325
:100400007F0080917D009AE0692F0E94C90280934D
:100410007B0080917B00805D0E946C0280917F0058
:10042000805D0E946C0280918000805D0E946C0261
:10043000CF91DF910895DF93CF9300D0CDB7DEB792
:100440009A83898310C089819A81FC0120818981E6
:100450009A8101969A838983822F0E946C0282E09E
:1004600090E00E949A0289819A81FC018081882310
:1004700051F70F900F90CF91DF910895DF93CF93B5
:100480000F92CDB7DEB7898385E390E02981FC0127
:10049000208382E390E022E330E0F90120812F7B8A
:1004A000FC01208382E390E022E330E0F901208127
:1004B0002068FC01208382E090E00E949A0282E39F
:1004C00090E022E330E0F90120812F77FC012083C6
:1004D0000F90CF91DF910895DF93CF930F92CDB717
:1004E000DEB7898385E390E02981FC01208382E3E4
:1004F00090E022E330E0F90120812064FC012083B8
:1005000082E390E022E330E0F90120812068FC01E1
:10051000208382E090E00E949A0282E390E022E34E
:1005200030E0F90120812F77FC0120830F90CF91DB
:10053000DF910895DF93CF9300D000D000D0CDB7E6
:10054000DEB79E838D831A82198213C01C821B82A0
:1005500005C08B819C8101969C838B838B819C81C0
:1005600023E0883E9207ACF389819A8101969A83B1
:10057000898329813A818D819E812817390734F337
:1005800026960FB6F894DEBF0FBECDBFCF91DF9198
:100590000895991B79E004C0991F961708F0961BDF
:0E05A000881F7A95C9F780950895F894FFCFCB
:1005AE00537265656E617468002020202020202023
:0205BE0020001B
:00000001FF
