:100000000C945D000C9485000C9485000C94850084
:100010000C9485000C9485000C9485000C9485004C
:100020000C9485000C9485000C9485000C9485003C
:100030000C9485000C9485000C9485000C9485002C
:100040000C94FC030C9485000C94BC030C94960354
:100050000C9485000C9485000C9485000C9485000C
:100060000C9485000C94850000000008000201003B
:100070000003040700000000000000000000000072
:10008000250028002B0000000000240027002A0083
:10009000040404040404040402020202020203032E
:1000A0000303030301020408102040800102040836
:1000B0001020010204081020460411241FBECFEFB7
:1000C000D8E0DEBFCDBF11E0A0E0B1E0E4E3FEE0A8
:1000D00002C005900D92AC31B107D9F722E0ACE136
:1000E000B1E001C01D92AC3EB207E1F710E0CDE5F2
:1000F000D0E004C02197FE010E940D07CC35D10746
:10010000C9F70E9461050C9418070C94000090E058
:10011000FC01EC55FF4F2491FC01E057FF4F849107
:10012000882399F090E0880F991FFC01EA57FF4F50
:10013000A591B491FC01E458FF4F859194918FB73C
:10014000F894EC91E22BEC938FBF0895CF92DF925D
:10015000EF92FF920F931F93CF93DF936C017A017D
:100160008B01C0E0D0E0CE15DF0589F0D8016D919C
:100170008D01D601ED91FC910190F081E02DC60139
:100180000995892B11F47E0102C02196ECCFC7019D
:10019000DF91CF911F910F91FF90EF90DF90CF9063
:1001A0000895FC01918D828D981799F0828DDF0161
:1001B000A80FB11D5D968C91228D2F5F91E0283C98
:1001C00008F490E038E3939F200D1124228F90E0F3
:1001D00008958FEF9FEF0895FC01918D828D981700
:1001E00031F0828DE80FF11D858D90E008958FEF3D
:1001F0009FEF0895FC01918D228D892F90E0885307
:100200009F4F821B910968EC70E00E94C30608951D
:1002100087E291E00E94FA0021E0892B09F420E0B6
:10022000822F0895FC01848DDF01A80FB11DAB5111
:10023000BF4F2C91848D90E0019668EC70E00E9495
:10024000D706848FA689B7892C93A089B1898C9110
:1002500080648C93938D848D981306C00288F389F3
:10026000E02D80818F7D80830895FF920F931F93EF
:10027000CF93DF93EC0181E0888F9B8D8C8D981359
:1002800005C0E889F989808185FD26C0162F8B8DF0
:1002900090E0019668EC70E00E94D706082FF82ED7
:1002A0008C8DF8120CC00FB607FCFACFE889F989DB
:1002B000808185FFF5CFCE010E941201F1CF8B8D99
:1002C000FE01E80FF11DEB51FF4F10830B8FEA8900
:1002D000FB898081806207C0EE89FF896083E8899D
:1002E000F98980818064808381E090E0DF91CF9103
:1002F0001F910F91FF900895CF93DF93EC01888DAC
:100300008823C9F0EA89FB89808185FD05C0A88919
:10031000B9898C9186FD0FC00FB607FCF5CF80819F
:1003200085FFF2CFA889B9898C9185FFEDCFCE01E9
:100330000E941201E7CFDF91CF91089580E090E015
:10034000892B29F00E94080181110C940000089566
:1003500090E0FC01E859FF4F3491FC01EC55FF4F50
:100360002491FC01E057FF4FE491EE2309F43BC0D8
:10037000332339F1333091F038F43130A9F0323091
:1003800001F584B58F7D12C0373091F03830A1F07F
:100390003430B9F4809180008F7D03C0809180005B
:1003A0008F77809380000DC084B58F7784BD09C09E
:1003B0008091B0008F7703C08091B0008F7D8093D3
:1003C000B000F0E0EE0FFF1FE458FF4FA591B4918D
:1003D0008FB7F894EC91611103C020952E2301C0D2
:1003E0002E2B2C938FBF08958E3008F08E5087707F
:1003F000806480937C0080917A00806480937A008E
:1004000080917A0086FDFCCF809178002091790060
:1004100090E0922B08953FB7F8948091210190913C
:100420002201A0912301B091240126B5A89B05C00B
:100430002F3F19F00196A11DB11D3FBFBA2FA92F63
:10044000982F8827820F911DA11DB11DBC01CD01E0
:1004500042E0660F771F881F991F4A95D1F70895CC
:100460008F929F92AF92BF92CF92DF92EF92FF92C4
:100470006B017C010E940B024B015C01C114D10491
:10048000E104F104F1F00E940B02DC01CB018819B8
:100490009909AA09BB09883E9340A105B10570F3EB
:1004A00021E0C21AD108E108F10888EE880E83E045
:1004B000981EA11CB11CC114D104E104F10419F768
:1004C000DDCFFF90EF90DF90CF90BF90AF909F90E7
:1004D0008F900895CF93DF93EC0160E08E810E94AE
:1004E000A80161E08E810E94A80160E08E810E94D7
:1004F000A8018BE891E00197F1F7DF91CF91089582
:10050000CF92DF92EF92FF920F931F93CF93DF93DF
:100510007C016C0187E0C80ED11CC0E0D0E0062F42
:1005200010E0B8010C2E02C0759567950A94E2F7A9
:100530006170F60181916F010E94A8012196C4307B
:10054000D10579F7C701DF91CF911F910F91FF90EE
:10055000EF90DF90CF900C946A02CF92DF92EF92EF
:10056000FF920F931F93CF93DF93EC01F62E642F2E
:100570008C810E94A8018D818F3F19F060E00E945C
:10058000A8018F850F2D10E084FF25C06E0187E044
:10059000C80ED11CE12CF12CB8010E2C02C07595AF
:1005A00067950A94E2F76170F60181916F010E94EC
:1005B000A801FFEFEF1AFF0A88E0E816F10461F7DF
:1005C000CE01DF91CF911F910F91FF90EF90DF90BF
:1005D000CF900C946A02B80184E0759567958A956E
:1005E000E1F7CE010E9480026F2DCE01DF91CF9105
:1005F0001F910F91FF90EF90DF90CF900C948002AD
:1006000041E00E94AD0281E090E008958F929F92B8
:10061000AF92BF920F931F93CF93DF93CDB7DEB707
:10062000A1970FB6F894DEBF0FBECDBF19A242301E
:1006300008F44AE08E010F5D1F4F842E912CA12CEF
:10064000B12CA50194010E94EB06E62FB901CA0165
:1006500001501109EA3014F4E05D01C0E95CD801F1
:10066000EC93232B242B252B61F70115110571F039
:10067000F80101900020E9F73197AF01401B510BC1
:10068000B80187E291E00E94A60002C080E090E0FD
:10069000A1960FB6F894DEBF0FBECDBFDF91CF910C
:1006A0001F910F91BF90AF909F908F900895CF9220
:1006B000DF92EF92FF92CF93DF936C01990FEE08D8
:1006C000FF08F7FE1AC0E0912701F0912801019080
:1006D000F081E02D6DE287E291E00995EC0166275B
:1006E0007727CB016C197D098E099F094AE00E948A
:1006F00006037C01EC0EFD1E06C04AE0C701B601F0
:100700000E9406037C0142E050E068E171E087E26C
:1007100091E00E94A6008E0D9F1DDF91CF91FF906A
:10072000EF90DF90CF9008950E9413071F920F92D1
:100730000FB60F9211242F933F934F935F936F93B4
:100740007F938F939F93AF93BF93EF93FF9387E232
:1007500091E00E941201FF91EF91BF91AF919F91A3
:100760008F917F916F915F914F913F912F910F905A
:100770000FBE0F901F9018951F920F920FB60F92F9
:1007800011242F935F936F937F938F939F93AF93D6
:10079000BF93EF93FF93E0913701F091380180818F
:1007A000E0913D01F0913E0182FD16C020818091D3
:1007B000400190E0019668EC70E00E94C3069091C1
:1007C0004101981751F0E0914001F0E0E95DFE4FE2
:1007D000258F8093400101C08081FF91EF91BF91EF
:1007E000AF919F918F917F916F915F912F910F901A
:1007F0000FBE0F901F9018951F920F920FB60F9279
:1008000011242F933F938F939F93AF93BF93809126
:100810001D0190911E01A0911F01B0912001309106
:100820001C0123E0230F2D3720F40196A11DB11DDB
:1008300005C026E8230F0296A11DB11D20931C01BF
:1008400080931D0190931E01A0931F01B09320017E
:100850008091210190912201A0912301B091240166
:100860000196A11DB11D8093210190932201A093B7
:100870002301B0932401BF91AF919F918F913F913C
:100880002F910F900FBE0F901F901895CF93DF936D
:1008900010922A011092290188EE93E0A0E0B0E0C6
:1008A00080932B0190932C01A0932D01B0932E01E6
:1008B00084E091E0909328018093270185EC90E0FB
:1008C000909334018093330184EC90E0909336014F
:1008D0008093350180EC90E090933801809337014C
:1008E00081EC90E090933A018093390182EC90E0A2
:1008F00090933C0180933B0186EC90E090933E0105
:1009000080933D01109240011092410110924201EA
:10091000109243011092D7021092D60284E191E026
:100920009093D5028093D4028CE08093D8028FEF0D
:100930008093D9028BE08093DA0285E08093DB021A
:1009400084E08093DC0283E08093DD0282E0809388
:10095000DE021092DF021092E0021092E102109289
:10096000E2021092E30281E08093E7021092E80233
:1009700080E48093E90280E18093EA0280E580933D
:10098000EB028CE00E9487008091D9028F3F11F02A
:100990000E9487008091DA020E948700C0E0D0E0C8
:1009A0008091E30284FD03C084E090E002C088E00F
:1009B00090E0C817D90744F4FE01EC52FD4F87813F
:1009C0000E9487002196ECCF8BE39DE00197F1F721
:1009D00060E08091D8020E94A80160E08091DA0274
:1009E0000E94A8018091D9028F3F19F060E00E9417
:1009F000A8016091E30264FD20C063E084ED92E011
:100A00000E948002CBE4D6E4CE010197F1F763E0C7
:100A100084ED92E00E9480022197F1F763E084ED7B
:100A200092E00E94800283E592E00197F1F762E094
:100A300084ED92E00E9480021EC0606240E084ED7E
:100A400092E00E94AD028BE496E40197F1F7609189
:100A5000E302606240E084ED92E00E94AD0283E533
:100A600092E00197F1F76091E302606240E084ED6B
:100A700092E00E94AD026091E302606240E084ED8A
:100A800092E00E94AD0284E08093E40240E06CE0DA
:100A900084ED92E00E94AD0240E061E084ED92E0DE
:100AA0000E94AD028BE39FE10197F1F782E0809312
:100AB000E50240E066E084ED92E0DF91CF910C9496
:100AC000AD02789484B5826084BD84B5816084BDB4
:100AD00085B5826085BD85B5816085BD80916E00DC
:100AE000816080936E00109281008091810082600D
:100AF000809381008091810081608093810080914A
:100B000080008160809380008091B1008460809338
:100B1000B1008091B00081608093B00080917A0034
:100B2000846080937A0080917A00826080937A005A
:100B300080917A00816080937A0080917A00806849
:100B400080937A001092C100E0913701F091380152
:100B500082E08083E0913301F09134011082E091D2
:100B60003501F09136018FEC808310923F01E091C6
:100B70003B01F0913C0186E08083E0913901F091E6
:100B80003A01808180618083E0913901F0913A01DE
:100B9000808188608083E0913901F0913A01808101
:100BA00080688083E0913901F0913A0180818F7DE6
:100BB000808385E00E94870084E00E94870083E0B4
:100BC0000E94870082E00E9487008BE00E948700DD
:100BD00083E7C82E80E0D82E97E3E92EF12C17E3A7
:100BE00022E0A22EB12C8EE00E94F4014C010E9462
:100BF000570361E070E080E090E00E9430028FE0F7
:100C00000E94F401EC010E94570361E070E080E073
:100C100090E00E94300285EF881681E098063CF152
:100C2000C53FE1E0DE070CF480C08BE00E94870046
:100C300061E08BE00E94A80161E084E00E94A801CD
:100C400060E085E00E94A80164E670E080E090E04A
:100C50000E94300261E082E00E94A80160E083E02F
:100C60000E94A801B0922601A092250177C0F4EF5E
:100C70008F16F1E09F0609F471C0C43F81E0D807E8
:100C80000CF06FC08BE00E948700F60184918330E6
:100C9000F9F048F48130B9F08230A1F584B5806272
:100CA00084BD18BD33C08730E9F0883019F1843035
:100CB00049F580918000806280938000F0928B00E3
:100CC000E0928A0023C084B5806884BD17BD1EC031
:100CD00080918000806880938000F0928900E0928B
:100CE000880014C08091B00080688093B000109399
:100CF000B3000CC08091B00080628093B00010936C
:100D0000B40004C060E08BE00E94A80160E084E0D1
:100D10000E94A80161E085E00E94A80161E083E0F3
:100D20000E94A80160E082E017C0C43FD140B1F04A
:100D300061E084E00E94A80160E085E00E94A801D3
:100D400064E670E080E090E00E94300260E082E0C3
:100D50000E94A80161E083E00E94A8010E949E0118
:100D600042CFC53FD140D4F361E082E00E94A801A8
:100D700060E083E00E94A80160E084E00E94A80196
:100D800061E085E0E9CFAA1BBB1B51E107C0AA1FA8
:100D9000BB1FA617B70710F0A61BB70B881F991F1C
:100DA0005A95A9F780959095BC01CD01089597FBC0
:100DB000072E16F4009407D077FD09D00E94C306D1
:100DC00007FC05D03EF4909581959F4F089570954E
:100DD00061957F4F0895A1E21A2EAA1BBB1BFD014E
:100DE0000DC0AA1FBB1FEE1FFF1FA217B307E4070A
:100DF000F50720F0A21BB30BE40BF50B661F771F62
:100E0000881F991F1A9469F7609570958095909541
:100E10009B01AC01BD01CF010895EE0FFF1F0590AE
:100E2000F491E02D099481E090E0F8940C94180777
:040E3000F894FFCF64
:100E3400000000003501A600FA00D100EC007C019E
:0C0E4400000000000003A6000D0A0000E2
:107E0000112484B714BE81FFF0D085E080938100F7
:107E100082E08093C00088E18093C10086E0809377
:107E2000C20080E18093C4008EE0C9D0259A86E02C
:107E300020E33CEF91E0309385002093840096BBD3
:107E4000B09BFECF1D9AA8958150A9F7CC24DD24C4
:107E500088248394B5E0AB2EA1E19A2EF3E0BF2EE7
:107E6000A2D0813461F49FD0082FAFD0023811F036
:107E7000013811F484E001C083E08DD089C08234E0
:107E800011F484E103C0853419F485E0A6D080C0E4
:107E9000853579F488D0E82EFF2485D0082F10E0AE
:107EA000102F00270E291F29000F111F8ED06801E7
:107EB0006FC0863521F484E090D080E0DECF843638
:107EC00009F040C070D06FD0082F6DD080E0C81688
:107ED00080E7D80618F4F601B7BEE895C0E0D1E017
:107EE00062D089930C17E1F7F0E0CF16F0E7DF06D8
:107EF00018F0F601B7BEE89568D007B600FCFDCFD4
:107F0000A601A0E0B1E02C9130E011968C91119780
:107F100090E0982F8827822B932B1296FA010C0160
:107F200087BEE89511244E5F5F4FF1E0A038BF0790
:107F300051F7F601A7BEE89507B600FCFDCF97BE46
:107F4000E89526C08437B1F42ED02DD0F82E2BD052
:107F50003CD0F601EF2C8F010F5F1F4F84911BD097
:107F6000EA94F801C1F70894C11CD11CFA94CF0C13
:107F7000D11C0EC0853739F428D08EE10CD085E9AC
:107F80000AD08FE07ACF813511F488E018D01DD067
:107F900080E101D065CF982F8091C00085FFFCCF94
:107FA0009093C60008958091C00087FFFCCF809118
:107FB000C00084FD01C0A8958091C6000895E0E648
:107FC000F0E098E1908380830895EDDF803219F02E
:107FD00088E0F5DFFFCF84E1DECF1F93182FE3DFCA
:107FE0001150E9F7F2DF1F91089580E0E8DFEE27F6
:047FF000FF270994CA
:027FFE00040479
:0400000300007E007B
:00000001FF
