:100000000C942A000C943F000C943F000C943F0089
:100010000C943F000C943F000C943F000C943F0064
:100020000C943F000C943F000C943F000C943F0054
:100030000C943F000C943F000C943F000C943F0044
:100040000C943F000C943F000C943F000C943F0034
:100050000C943F0011241FBECFE5D4E0DEBFCDBF1E
:1000600010E0A0E6B0E0EAE0F6E002C005900D92F4
:10007000A039B107D9F70E9441000C9403030C94F6
:1000800000000F931F93DF93CF93CDB7DEB7AD97EB
:100090000FB6F894DEBF0FBECDBF8AE390E020EF2D
:1000A000FC01208387E390E0FC01108284E390E070
:1000B0002FEFFC01208381E390E02FEFFC012083F0
:1000C00088E390E02FEFFC01208388E30E94510237
:1000D00080E80E9451028CE00E94510286E00E945A
:1000E000510281E00E94510203C0000001C00000E3
:1000F0001D821C822FE0CE014F96FC01322F1192FF
:100100003A95E9F780EC8F8F81EC88A382EC89A384
:1001100083EC8AA384EC8BA385EC8CA386EC8DA363
:1001200087EC8EA388EC8FA389EC88A780E80E94D7
:10013000510280E690E00E94AD0286E390E0FC016F
:1001400080818B838B818E3F81F68C819D8100978E
:1001500071F681E00E94510280E80E94510280E71E
:1001600090E00E94AD0281E090E09D838C831B8231
:100170002BC08B81882F90E09E01215E3F4F820F24
:10018000931FFC0180810E9451028B81082F10E097
:100190000E944801282FCE010B96800F911FFC0171
:1001A00020838B81882F90E09E01255F3F4F820F37
:1001B000931FFC0180810E947F028AE090E00E94F0
:1001C00022028B818F5F8B838B818A3090F281E05A
:1001D0000E94510280E80E94510281E890E00E9452
:1001E000AD0280EC0E9451028CE390E09A838983F7
:1001F00049C089819A8124E630E0B9010E94DC027D
:100200009B01C9018E8389819A8124E630E0B9017E
:100210000E94DC028F838F819AE0692F0E94D002B6
:1002200088878F819AE0692F0E94D002892F898761
:1002300080EC0E9451028E81805D0E947F02888541
:10024000805D0E947F028985805D0E947F028AE036
:1002500090E00E94220286E390E0FC0180818A8780
:100260008A858E3F51F48C819D818130910529F4DE
:1002700089819A81CC969A83898389819A81019711
:100280009A83898389819A8199230CF0B2CF30CFE8
:10029000DF93CF93CDB7DEB727970FB6F894DEBFC5
:1002A0000FBECDBF82E090E00E9422021A82198226
:1002B00001C000008BE390E02FE7FC01208389E37D
:1002C00090E0FC0180818C838C818E3731F487E350
:1002D0008B8381E090E09A8389838C818D3731F420
:1002E00084E38B8381E090E09A8389838C818B37D0
:1002F00031F481E38B8381E090E09A8389838C8160
:10030000873731F483E68B8381E090E09A83898399
:100310008BE390E02FEBFC01208389E390E0FC016C
:1003200080818D838D818E3B31F488E38B8381E0E6
:1003300090E09A8389838D818D3B31F485E38B83B3
:1003400081E090E09A8389838D818B3B31F482E355
:100350008B8381E090E09A8389838D81873B31F4A0
:1003600080E38B8381E090E09A8389838BE390E044
:100370002FEEFC01208389E390E0FC0180818E83D5
:100380008E818E3E31F489E38B8381E090E09A8305
:1003900089838E818D3E31F486E38B8381E090E00A
:1003A0009A8389838E818B3E31F483E38B8381E052
:1003B00090E09A8389838E81873E31F48DE38B832D
:1003C00081E090E09A8389838BE390E02FEDFC013C
:1003D000208389E390E0FC0180818F838F818E3DB3
:1003E00031F48FE28B8381E090E09A8389838F815F
:1003F0008D3D31F48AE28B8381E090E09A8389839A
:100400008F818B3D31F48DE28B8381E090E09A8384
:1004100089838F81873D31F48BE28B8381E090E08B
:100420009A83898389819A818130910509F041CF2E
:100430008B8127960FB6F894DEBF0FBECDBFCF914C
:10044000DF910895DF93CF9300D000D000D0CDB7D7
:10045000DEB79E838D831A82198213C01C821B8291
:1004600005C08B819C8101969C838B838B819C81B1
:1004700023E0893E9207ACF389819A8101969A83A1
:10048000898329813A818D819E818217930734F770
:1004900026960FB6F894DEBF0FBECDBFCF91DF9189
:1004A0000895DF93CF930F92CDB7DEB7898385E3AD
:1004B00090E02981FC01208382E390E022E330E098
:1004C000F90120812F7BFC01208382E390E022E36D
:1004D00030E0F90120812068FC01208382E090E077
:1004E0000E94220282E390E022E330E0F9012081C1
:1004F0002F77FC0120830F90CF91DF910895DF9338
:10050000CF930F92CDB7DEB7898385E390E0298141
:10051000FC01208382E390E022E330E0F9012081B6
:100520002064FC01208382E390E022E330E0F901C3
:1005300020812068FC01208382E090E00E9422025A
:1005400082E390E022E330E0F90120812F77FC0183
:1005500020830F90CF91DF910895DF93CF9300D048
:10056000CDB7DEB79A83898310C089819A81FC0157
:10057000208189819A8101969A838983822F0E94A2
:100580007F0282E090E00E94220289819A81FC0130
:100590008081882351F70F900F90CF91DF910895BC
:1005A000991B79E004C0991F961708F0961B881FC5
:1005B0007A95C9F78095089597FB092E07260AD0EA
:1005C00077FD04D00CD006D000201AF47095619508
:1005D0007F4F0895F6F7909581959F4F0895AA1B38
:1005E000BB1B51E107C0AA1FBB1FA617B70710F01E
:1005F000A61BB70B881F991F5A95A9F78095909550
:0A060000BC01CD010895F894FFCF6E
:10060A00696E736572742074686520636F696E0021
:10061A00656E74657220746865206E756D626572A8
:10062A000072656D61696E696E672074696D650037
:00000001FF
