:100000000C945D000C9485000C9485000C94850084
:100010000C9485000C9485000C9485000C9485004C
:100020000C9485000C9485000C9485000C9485003C
:100030000C9485000C9485000C9485000C9485002C
:100040000C94F2010C9485000C9462020C943C0216
:100050000C9485000C9485000C9485000C9485000C
:100060000C9485000C94850000000008000201003B
:100070000003040700000000000000000000000072
:10008000250028002B0000000000240027002A0083
:10009000040404040404040402020202020203032E
:1000A0000303030301020408102040800102040836
:1000B00010200102040810207A0311241FBECFEF84
:1000C000D8E0DEBFCDBF11E0A0E0B1E0E8EBF7E0A3
:1000D00002C005900D92A431B107D9F722E0A4E146
:1000E000B1E001C01D92AC3CB207E1F710E0CDE5F4
:1000F000D0E004C02197FE010E94CF03CC35D10788
:10010000C9F70E94A2020C94DA030C940000CF926B
:10011000DF92EF92FF920F931F93CF93DF936C01C7
:100120007A018B01C0E0D0E0CE15DF0589F0D8015F
:100130006D918D01D601ED91FC910190F081E02D42
:10014000C6010995892B11F47E0102C02196ECCFDE
:10015000C701DF91CF911F910F91FF90EF90DF903A
:10016000CF900895CF93DF93E0911F01F09120018C
:100170000190F081E02D682F8FE191E00995EC016D
:1001800042E050E060E171E08FE191E00E94870081
:100190008C0F9D1FDF91CF910895FC01918D828D71
:1001A000981799F0828DDF01A80FB11D5D968C9193
:1001B000228D2F5F91E0283C08F490E038E3939F74
:1001C000200D1124228F90E008958FEF9FEF089566
:1001D000FC01918D828D981731F0828DE80FF11D11
:1001E000858D90E008958FEF9FEF0895FC01918D2C
:1001F000228D892F90E088539F4F821B910968ECD4
:1002000070E00E94A70308958FE191E00E94F6003C
:1002100021E0892B09F420E0822F0895FC01848DD0
:10022000DF01A80FB11DAB51BF4F2C91848D90E021
:10023000019668EC70E00E94BB03848FA689B789A1
:100240002C93A089B1898C9180648C93938D848D3B
:10025000981306C00288F389E02D80818F7D80830A
:100260000895FF920F931F93CF93DF93EC0181E0EA
:10027000888F9B8D8C8D981305C0E889F9898081C2
:1002800085FD26C0162F8B8D90E0019668EC70E0FE
:100290000E94BB03082FF82E8C8DF8120CC00FB6ED
:1002A00007FCFACFE889F989808185FFF5CFCE0177
:1002B0000E940E01F1CF8B8DFE01E80FF11DEB5175
:1002C000FF4F10830B8FEA89FB898081806207C012
:1002D000EE89FF896083E889F98980818064808361
:1002E00081E090E0DF91CF911F910F91FF900895F1
:1002F000CF93DF93EC01888D8823C9F0EA89FB89CD
:10030000808185FD05C0A889B9898C9186FD0FC0C3
:100310000FB607FCF5CF808185FFF2CFA889B98998
:100320008C9185FFEDCFCE010E940E01E7CFDF91CA
:10033000CF91089580E090E0892B29F00E9404017C
:1003400081110C940000089590E0FC01E859FF4FE2
:100350003491FC01EC55FF4F2491FC01E057FF4F15
:10036000E491EE2309F43BC0332339F1333091F0AB
:1003700038F43130A9F0323001F584B58F7D12C0E8
:10038000373091F03830A1F03430B9F480918000EA
:100390008F7D03C0809180008F77809380000DC097
:1003A00084B58F7784BD09C08091B0008F7703C07A
:1003B0008091B0008F7D8093B000F0E0EE0FFF1FC2
:1003C000E458FF4FA591B4918FB7F894EC91611167
:1003D00003C020952E2301C02E2B2C938FBF089590
:1003E0000E94D5031F920F920FB60F9211242F93E4
:1003F0003F938F939F93AF93BF9380911B019091F5
:100400001C01A0911D01B0911E0130911A0123E041
:10041000230F2D3720F40196A11DB11D05C026E83C
:10042000230F0296A11DB11D20931A0180931B0179
:1004300090931C01A0931D01B0931E0180911601A1
:1004400090911701A0911801B09119010196A11D79
:10045000B11D8093160190931701A0931801B093DA
:100460001901BF91AF919F918F913F912F910F9063
:100470000FBE0F901F9018951F920F920FB60F92FC
:1004800011242F933F934F935F936F937F938F9399
:100490009F93AF93BF93EF93FF938FE191E00E94FF
:1004A0000E01FF91EF91BF91AF919F918F917F913D
:1004B0006F915F914F913F912F910F900FBE0F90D1
:1004C0001F9018951F920F920FB60F9211242F9321
:1004D0005F936F937F938F939F93AF93BF93EF93AC
:1004E000FF93E0912F01F09130018081E09135017F
:1004F000F091360182FD16C020818091380190E094
:10050000019668EC70E00E94A7039091390198175A
:1005100051F0E0913801F0E0E15EFE4F258F8093CD
:10052000380101C08081FF91EF91BF91AF919F9100
:100530008F917F916F915F912F910F900FBE0F90D0
:100540001F901895789484B5826084BD84B58160CD
:1005500084BD85B5826085BD85B5816085BD80918E
:100560006E00816080936E00109281008091810006
:1005700082608093810080918100816080938100FE
:10058000809180008160809380008091B1008460C0
:100590008093B1008091B00081608093B000809121
:1005A0007A00846080937A0080917A0082608093E0
:1005B0007A0080917A00816080937A0080917A003D
:1005C000806880937A001092C100ECEAF0E02491F8
:1005D000E8E9F0E08491882399F090E0880F991F72
:1005E000FC01EA57FF4FA591B491FC01E458FF4F7D
:1005F000859194918FB7F894EC91E22BEC938FBF97
:10060000E0912F01F091300182E08083E0912B0195
:10061000F0912C011082E0912D01F0912E018FECD0
:10062000808310923701E0913301F091340186E02C
:100630008083E0913101F09132018081806180837B
:10064000E0913101F0913201808188608083E091F6
:100650003101F0913201808180688083E091310125
:10066000F091320180818F7D8083C2E0D0E001E093
:1006700010E08FE191E00E94F60018161906BCF513
:100680008FE191E00E94CD00813641F461E088E085
:100690000E94A40181E60E94B20010C0823641F49B
:1006A00060E088E00E94A40182E60E94B2001BC0C4
:1006B000833649F461E089E00E94A401109315019A
:1006C0000093140114C0843619F460E089E009C075
:1006D000853619F461E08AE0EFCF863641F460E0B8
:1006E0008AE00E94A401D0931501C09314010E94D6
:1006F0009A01BFCFEFE1F1E01382128288EE93E01E
:10070000A0E0B0E084839583A683B78384E091E082
:100710009183808385EC90E09587848784EC90E0DA
:100720009787868780EC90E0918B808B81EC90E0BE
:10073000938B828B82EC90E0958B848B86EC90E09F
:10074000978B868B118E128E138E148E0895AA1B92
:10075000BB1B51E107C0AA1FBB1FA617B70710F0AC
:10076000A61BB70B881F991F5A95A9F780959095DE
:10077000BC01CD01089597FB072E16F4009407D015
:1007800077FD09D00E94A70307FC05D03EF49095A1
:1007900081959F4F0895709561957F4F0895EE0F55
:1007A000FF1F0590F491E02D099481E090E0F8940A
:0807B0000C94DA03F894FFCF6A
:1007B8000000000031018700F600CD00E800780154
:0407C8000D0A000016
:00000001FF
